{
  "contractName": "NFTWarV1",
  "abi": [
    {
      "inputs": [],
      "stateMutability": "nonpayable",
      "type": "constructor"
    },
    {
      "inputs": [],
      "name": "ChallengeNotTaken",
      "type": "error"
    },
    {
      "anonymous": false,
      "inputs": [
        {
          "indexed": true,
          "internalType": "address",
          "name": "account",
          "type": "address"
        },
        {
          "indexed": true,
          "internalType": "address",
          "name": "operator",
          "type": "address"
        },
        {
          "indexed": false,
          "internalType": "bool",
          "name": "approved",
          "type": "bool"
        }
      ],
      "name": "ApprovalForAll",
      "type": "event"
    },
    {
      "anonymous": false,
      "inputs": [
        {
          "indexed": true,
          "internalType": "address",
          "name": "operator",
          "type": "address"
        },
        {
          "indexed": true,
          "internalType": "address",
          "name": "from",
          "type": "address"
        },
        {
          "indexed": true,
          "internalType": "address",
          "name": "to",
          "type": "address"
        },
        {
          "indexed": false,
          "internalType": "uint256[]",
          "name": "ids",
          "type": "uint256[]"
        },
        {
          "indexed": false,
          "internalType": "uint256[]",
          "name": "values",
          "type": "uint256[]"
        }
      ],
      "name": "TransferBatch",
      "type": "event"
    },
    {
      "anonymous": false,
      "inputs": [
        {
          "indexed": true,
          "internalType": "address",
          "name": "operator",
          "type": "address"
        },
        {
          "indexed": true,
          "internalType": "address",
          "name": "from",
          "type": "address"
        },
        {
          "indexed": true,
          "internalType": "address",
          "name": "to",
          "type": "address"
        },
        {
          "indexed": false,
          "internalType": "uint256",
          "name": "id",
          "type": "uint256"
        },
        {
          "indexed": false,
          "internalType": "uint256",
          "name": "value",
          "type": "uint256"
        }
      ],
      "name": "TransferSingle",
      "type": "event"
    },
    {
      "anonymous": false,
      "inputs": [
        {
          "indexed": false,
          "internalType": "string",
          "name": "value",
          "type": "string"
        },
        {
          "indexed": true,
          "internalType": "uint256",
          "name": "id",
          "type": "uint256"
        }
      ],
      "name": "URI",
      "type": "event"
    },
    {
      "inputs": [
        {
          "internalType": "address",
          "name": "",
          "type": "address"
        }
      ],
      "name": "Battle",
      "outputs": [
        {
          "internalType": "address",
          "name": "counterPlayer",
          "type": "address"
        },
        {
          "internalType": "uint256",
          "name": "nftIdAttacker",
          "type": "uint256"
        }
      ],
      "stateMutability": "view",
      "type": "function"
    },
    {
      "inputs": [
        {
          "internalType": "address",
          "name": "",
          "type": "address"
        },
        {
          "internalType": "uint256",
          "name": "",
          "type": "uint256"
        }
      ],
      "name": "KillCount",
      "outputs": [
        {
          "internalType": "uint256",
          "name": "",
          "type": "uint256"
        }
      ],
      "stateMutability": "view",
      "type": "function"
    },
    {
      "inputs": [
        {
          "internalType": "address",
          "name": "account",
          "type": "address"
        },
        {
          "internalType": "uint256",
          "name": "id",
          "type": "uint256"
        }
      ],
      "name": "balanceOf",
      "outputs": [
        {
          "internalType": "uint256",
          "name": "",
          "type": "uint256"
        }
      ],
      "stateMutability": "view",
      "type": "function"
    },
    {
      "inputs": [
        {
          "internalType": "address[]",
          "name": "accounts",
          "type": "address[]"
        },
        {
          "internalType": "uint256[]",
          "name": "ids",
          "type": "uint256[]"
        }
      ],
      "name": "balanceOfBatch",
      "outputs": [
        {
          "internalType": "uint256[]",
          "name": "",
          "type": "uint256[]"
        }
      ],
      "stateMutability": "view",
      "type": "function"
    },
    {
      "inputs": [
        {
          "internalType": "address",
          "name": "account",
          "type": "address"
        },
        {
          "internalType": "address",
          "name": "operator",
          "type": "address"
        }
      ],
      "name": "isApprovedForAll",
      "outputs": [
        {
          "internalType": "bool",
          "name": "",
          "type": "bool"
        }
      ],
      "stateMutability": "view",
      "type": "function"
    },
    {
      "inputs": [
        {
          "internalType": "uint256",
          "name": "",
          "type": "uint256"
        }
      ],
      "name": "ownerOfNFT",
      "outputs": [
        {
          "internalType": "address",
          "name": "",
          "type": "address"
        }
      ],
      "stateMutability": "view",
      "type": "function"
    },
    {
      "inputs": [
        {
          "internalType": "address",
          "name": "from",
          "type": "address"
        },
        {
          "internalType": "address",
          "name": "to",
          "type": "address"
        },
        {
          "internalType": "uint256[]",
          "name": "ids",
          "type": "uint256[]"
        },
        {
          "internalType": "uint256[]",
          "name": "amounts",
          "type": "uint256[]"
        },
        {
          "internalType": "bytes",
          "name": "data",
          "type": "bytes"
        }
      ],
      "name": "safeBatchTransferFrom",
      "outputs": [],
      "stateMutability": "nonpayable",
      "type": "function"
    },
    {
      "inputs": [
        {
          "internalType": "address",
          "name": "from",
          "type": "address"
        },
        {
          "internalType": "address",
          "name": "to",
          "type": "address"
        },
        {
          "internalType": "uint256",
          "name": "id",
          "type": "uint256"
        },
        {
          "internalType": "uint256",
          "name": "amount",
          "type": "uint256"
        },
        {
          "internalType": "bytes",
          "name": "data",
          "type": "bytes"
        }
      ],
      "name": "safeTransferFrom",
      "outputs": [],
      "stateMutability": "nonpayable",
      "type": "function"
    },
    {
      "inputs": [
        {
          "internalType": "address",
          "name": "operator",
          "type": "address"
        },
        {
          "internalType": "bool",
          "name": "approved",
          "type": "bool"
        }
      ],
      "name": "setApprovalForAll",
      "outputs": [],
      "stateMutability": "nonpayable",
      "type": "function"
    },
    {
      "inputs": [
        {
          "internalType": "bytes4",
          "name": "interfaceId",
          "type": "bytes4"
        }
      ],
      "name": "supportsInterface",
      "outputs": [
        {
          "internalType": "bool",
          "name": "",
          "type": "bool"
        }
      ],
      "stateMutability": "view",
      "type": "function"
    },
    {
      "inputs": [
        {
          "internalType": "uint256",
          "name": "",
          "type": "uint256"
        }
      ],
      "name": "uri",
      "outputs": [
        {
          "internalType": "string",
          "name": "",
          "type": "string"
        }
      ],
      "stateMutability": "view",
      "type": "function"
    },
    {
      "inputs": [],
      "name": "mint",
      "outputs": [
        {
          "internalType": "uint256",
          "name": "",
          "type": "uint256"
        }
      ],
      "stateMutability": "nonpayable",
      "type": "function"
    },
    {
      "inputs": [
        {
          "internalType": "address",
          "name": "counterPlayer",
          "type": "address"
        },
        {
          "internalType": "uint256",
          "name": "_nftId",
          "type": "uint256"
        }
      ],
      "name": "battle",
      "outputs": [],
      "stateMutability": "nonpayable",
      "type": "function"
    },
    {
      "inputs": [
        {
          "internalType": "uint256",
          "name": "attackRatio",
          "type": "uint256"
        }
      ],
      "name": "result",
      "outputs": [],
      "stateMutability": "nonpayable",
      "type": "function"
    }
  ],
  "bytecode": "0x60806040523480156200001157600080fd5b506040518060200160405280600081525062000033816200011160201b60201c565b50620000446200012660201b60201c565b6200010b3060048054806020026020016040519081016040528092919081815260200182805480156200009757602002820191906000526020600020905b81548152602001906001019080831162000082575b50505050506005805480602002602001604051908101604052809291908181526020018280548015620000ea57602002820191906000526020600020905b815481526020019060010190808311620000d5575b505050505060405180602001604052806000815250620001a360201b60201c565b6200114f565b8060029081620001229190620008b1565b5050565b6000600190505b6065811015620001a057600481908060018154018082558091505060019003906000526020600020016000909190919091505560056001908060018154018082558091505060019003906000526020600020016000909190919091505580806200019790620009c7565b9150506200012d565b50565b600073ffffffffffffffffffffffffffffffffffffffff168473ffffffffffffffffffffffffffffffffffffffff160362000215576040517f08c379a00000000000000000000000000000000000000000000000000000000081526004016200020c9062000a9b565b60405180910390fd5b81518351146200025c576040517f08c379a0000000000000000000000000000000000000000000000000000000008152600401620002539062000b33565b60405180910390fd5b60006200026e6200040360201b60201c565b905062000287816000878787876200040b60201b60201c565b60005b84518110156200034c57838181518110620002aa57620002a962000b55565b5b6020026020010151600080878481518110620002cb57620002ca62000b55565b5b6020026020010151815260200190815260200160002060008873ffffffffffffffffffffffffffffffffffffffff1673ffffffffffffffffffffffffffffffffffffffff16815260200190815260200160002060008282546200032f919062000b84565b9250508190555080806200034390620009c7565b9150506200028a565b508473ffffffffffffffffffffffffffffffffffffffff16600073ffffffffffffffffffffffffffffffffffffffff168273ffffffffffffffffffffffffffffffffffffffff167f4a39dc06d4c0dbc64b70af90fd698a233a518aa5d07e595d983b8c0526c8f7fb8787604051620003c692919062000c8d565b60405180910390a4620003e5816000878787876200041360201b60201c565b620003fc816000878787876200041b60201b60201c565b5050505050565b600033905090565b505050505050565b505050505050565b620004478473ffffffffffffffffffffffffffffffffffffffff166200061460201b620010921760201c565b156200060c578373ffffffffffffffffffffffffffffffffffffffff1663bc197c8187878686866040518663ffffffff1660e01b81526004016200049095949392919062000da7565b6020604051808303816000875af1925050508015620004cf57506040513d601f19601f82011682018060405250810190620004cc919062000e85565b60015b6200058057620004de62000ec4565b806308c379a003620005415750620004f562000f1f565b8062000502575062000543565b806040517f08c379a000000000000000000000000000000000000000000000000000000000815260040162000538919062000ffb565b60405180910390fd5b505b6040517f08c379a0000000000000000000000000000000000000000000000000000000008152600401620005779062001095565b60405180910390fd5b63bc197c8160e01b7bffffffffffffffffffffffffffffffffffffffffffffffffffffffff1916817bffffffffffffffffffffffffffffffffffffffffffffffffffffffff1916146200060a576040517f08c379a000000000000000000000000000000000000000000000000000000000815260040162000601906200112d565b60405180910390fd5b505b505050505050565b6000808273ffffffffffffffffffffffffffffffffffffffff163b119050919050565b600081519050919050565b7f4e487b7100000000000000000000000000000000000000000000000000000000600052604160045260246000fd5b7f4e487b7100000000000000000000000000000000000000000000000000000000600052602260045260246000fd5b60006002820490506001821680620006b957607f821691505b602082108103620006cf57620006ce62000671565b5b50919050565b60008190508160005260206000209050919050565b60006020601f8301049050919050565b600082821b905092915050565b600060088302620007397fffffffffffffffffffffffffffffffffffffffffffffffffffffffffffffffff82620006fa565b620007458683620006fa565b95508019841693508086168417925050509392505050565b6000819050919050565b6000819050919050565b6000620007926200078c62000786846200075d565b62000767565b6200075d565b9050919050565b6000819050919050565b620007ae8362000771565b620007c6620007bd8262000799565b84845462000707565b825550505050565b600090565b620007dd620007ce565b620007ea818484620007a3565b505050565b5b81811015620008125762000806600082620007d3565b600181019050620007f0565b5050565b601f82111562000861576200082b81620006d5565b6200083684620006ea565b8101602085101562000846578190505b6200085e6200085585620006ea565b830182620007ef565b50505b505050565b600082821c905092915050565b6000620008866000198460080262000866565b1980831691505092915050565b6000620008a1838362000873565b9150826002028217905092915050565b620008bc8262000637565b67ffffffffffffffff811115620008d857620008d762000642565b5b620008e48254620006a0565b620008f182828562000816565b600060209050601f83116001811462000929576000841562000914578287015190505b62000920858262000893565b86555062000990565b601f1984166200093986620006d5565b60005b8281101562000963578489015182556001820191506020850194506020810190506200093c565b868310156200098357848901516200097f601f89168262000873565b8355505b6001600288020188555050505b505050505050565b7f4e487b7100000000000000000000000000000000000000000000000000000000600052601160045260246000fd5b6000620009d4826200075d565b91507fffffffffffffffffffffffffffffffffffffffffffffffffffffffffffffffff820362000a095762000a0862000998565b5b600182019050919050565b600082825260208201905092915050565b7f455243313135353a206d696e7420746f20746865207a65726f2061646472657360008201527f7300000000000000000000000000000000000000000000000000000000000000602082015250565b600062000a8360218362000a14565b915062000a908262000a25565b604082019050919050565b6000602082019050818103600083015262000ab68162000a74565b9050919050565b7f455243313135353a2069647320616e6420616d6f756e7473206c656e6774682060008201527f6d69736d61746368000000000000000000000000000000000000000000000000602082015250565b600062000b1b60288362000a14565b915062000b288262000abd565b604082019050919050565b6000602082019050818103600083015262000b4e8162000b0c565b9050919050565b7f4e487b7100000000000000000000000000000000000000000000000000000000600052603260045260246000fd5b600062000b91826200075d565b915062000b9e836200075d565b925082820190508082111562000bb95762000bb862000998565b5b92915050565b600081519050919050565b600082825260208201905092915050565b6000819050602082019050919050565b62000bf6816200075d565b82525050565b600062000c0a838362000beb565b60208301905092915050565b6000602082019050919050565b600062000c308262000bbf565b62000c3c818562000bca565b935062000c498362000bdb565b8060005b8381101562000c8057815162000c64888262000bfc565b975062000c718362000c16565b92505060018101905062000c4d565b5085935050505092915050565b6000604082019050818103600083015262000ca9818562000c23565b9050818103602083015262000cbf818462000c23565b90509392505050565b600073ffffffffffffffffffffffffffffffffffffffff82169050919050565b600062000cf58262000cc8565b9050919050565b62000d078162000ce8565b82525050565b600081519050919050565b600082825260208201905092915050565b60005b8381101562000d4957808201518184015260208101905062000d2c565b60008484015250505050565b6000601f19601f8301169050919050565b600062000d738262000d0d565b62000d7f818562000d18565b935062000d9181856020860162000d29565b62000d9c8162000d55565b840191505092915050565b600060a08201905062000dbe600083018862000cfc565b62000dcd602083018762000cfc565b818103604083015262000de1818662000c23565b9050818103606083015262000df7818562000c23565b9050818103608083015262000e0d818462000d66565b90509695505050505050565b6000604051905090565b600080fd5b60007fffffffff0000000000000000000000000000000000000000000000000000000082169050919050565b62000e5f8162000e28565b811462000e6b57600080fd5b50565b60008151905062000e7f8162000e54565b92915050565b60006020828403121562000e9e5762000e9d62000e23565b5b600062000eae8482850162000e6e565b91505092915050565b60008160e01c9050919050565b600060033d111562000ee65760046000803e62000ee360005162000eb7565b90505b90565b62000ef48262000d55565b810181811067ffffffffffffffff8211171562000f165762000f1562000642565b5b80604052505050565b600060443d1062000fb75762000f3462000e19565b60043d036004823e80513d602482011167ffffffffffffffff8211171562000f5e57505062000fb7565b808201805167ffffffffffffffff81111562000f7e575050505062000fb7565b80602083010160043d03850181111562000f9d57505050505062000fb7565b62000fae8260200185018662000ee9565b82955050505050505b90565b600062000fc78262000637565b62000fd3818562000a14565b935062000fe581856020860162000d29565b62000ff08162000d55565b840191505092915050565b6000602082019050818103600083015262001017818462000fba565b905092915050565b7f455243313135353a207472616e7366657220746f206e6f6e2d4552433131353560008201527f526563656976657220696d706c656d656e746572000000000000000000000000602082015250565b60006200107d60348362000a14565b91506200108a826200101f565b604082019050919050565b60006020820190508181036000830152620010b0816200106e565b9050919050565b7f455243313135353a204552433131353552656365697665722072656a6563746560008201527f6420746f6b656e73000000000000000000000000000000000000000000000000602082015250565b60006200111560288362000a14565b91506200112282620010b7565b604082019050919050565b60006020820190508181036000830152620011488162001106565b9050919050565b613275806200115f6000396000f3fe608060405234801561001057600080fd5b50600436106100e95760003560e01c80634e1273f41161008c578063a22cb46511610066578063a22cb46514610280578063e985e9c51461029c578063f242432a146102cc578063ffbe5a48146102e8576100e9565b80634e1273f4146102045780638704e5ce1461023457806394205a1614610264576100e9565b80631249c58b116100c85780631249c58b1461017e5780632d8a746e1461019c5780632eb2c2d6146101cc5780633c594059146101e8576100e9565b8062fdd58e146100ee57806301ffc9a71461011e5780630e89341c1461014e575b600080fd5b61010860048036038101906101039190611f99565b610319565b6040516101159190611fe8565b60405180910390f35b6101386004803603810190610133919061205b565b6103e1565b60405161014591906120a3565b60405180910390f35b610168600480360381019061016391906120be565b6104c3565b604051610175919061217b565b60405180910390f35b610186610557565b6040516101939190611fe8565b60405180910390f35b6101b660048036038101906101b191906120be565b6105e7565b6040516101c391906121ac565b60405180910390f35b6101e660048036038101906101e191906123c4565b61061a565b005b61020260048036038101906101fd91906120be565b6106bb565b005b61021e60048036038101906102199190612556565b610c60565b60405161022b919061268c565b60405180910390f35b61024e60048036038101906102499190611f99565b610d79565b60405161025b9190611fe8565b60405180910390f35b61027e60048036038101906102799190611f99565b610d9e565b005b61029a600480360381019061029591906126da565b610f03565b005b6102b660048036038101906102b1919061271a565b610f19565b6040516102c391906120a3565b60405180910390f35b6102e660048036038101906102e1919061275a565b610fad565b005b61030260048036038101906102fd91906127f1565b61104e565b60405161031092919061281e565b60405180910390f35b60008073ffffffffffffffffffffffffffffffffffffffff168373ffffffffffffffffffffffffffffffffffffffff1603610389576040517f08c379a0000000000000000000000000000000000000000000000000000000008152600401610380906128b9565b60405180910390fd5b60008083815260200190815260200160002060008473ffffffffffffffffffffffffffffffffffffffff1673ffffffffffffffffffffffffffffffffffffffff16815260200190815260200160002054905092915050565b60007fd9b67a26000000000000000000000000000000000000000000000000000000007bffffffffffffffffffffffffffffffffffffffffffffffffffffffff1916827bffffffffffffffffffffffffffffffffffffffffffffffffffffffff191614806104ac57507f0e89341c000000000000000000000000000000000000000000000000000000007bffffffffffffffffffffffffffffffffffffffffffffffffffffffff1916827bffffffffffffffffffffffffffffffffffffffffffffffffffffffff1916145b806104bc57506104bb826110b5565b5b9050919050565b6060600280546104d290612908565b80601f01602080910402602001604051908101604052809291908181526020018280546104fe90612908565b801561054b5780601f106105205761010080835404028352916020019161054b565b820191906000526020600020905b81548152906001019060200180831161052e57829003601f168201915b50505050509050919050565b6000610563600361111f565b600061056f6003611135565b905061058e303383600160405180602001604052806000815250611143565b336006600083815260200190815260200160002060006101000a81548173ffffffffffffffffffffffffffffffffffffffff021916908373ffffffffffffffffffffffffffffffffffffffff1602179055508091505090565b60066020528060005260406000206000915054906101000a900473ffffffffffffffffffffffffffffffffffffffff1681565b6106226113de565b73ffffffffffffffffffffffffffffffffffffffff168573ffffffffffffffffffffffffffffffffffffffff1614806106685750610667856106626113de565b610f19565b5b6106a7576040517f08c379a000000000000000000000000000000000000000000000000000000000815260040161069e906129ab565b60405180910390fd5b6106b485858585856113e6565b5050505050565b6000600760003373ffffffffffffffffffffffffffffffffffffffff1673ffffffffffffffffffffffffffffffffffffffff16815260200190815260200160002060000160009054906101000a900473ffffffffffffffffffffffffffffffffffffffff1690503373ffffffffffffffffffffffffffffffffffffffff16600760008373ffffffffffffffffffffffffffffffffffffffff1673ffffffffffffffffffffffffffffffffffffffff16815260200190815260200160002060000160009054906101000a900473ffffffffffffffffffffffffffffffffffffffff1673ffffffffffffffffffffffffffffffffffffffff16146107e9576040517f8f45fc1c00000000000000000000000000000000000000000000000000000000815260040160405180910390fd5b60003390506000600760003373ffffffffffffffffffffffffffffffffffffffff1673ffffffffffffffffffffffffffffffffffffffff16815260200190815260200160002060000160009054906101000a900473ffffffffffffffffffffffffffffffffffffffff1690506032841115610a5e576108ac81600760008473ffffffffffffffffffffffffffffffffffffffff1673ffffffffffffffffffffffffffffffffffffffff168152602001908152602001600020600101546001611707565b60066000600760008473ffffffffffffffffffffffffffffffffffffffff1673ffffffffffffffffffffffffffffffffffffffff16815260200190815260200160002060010154815260200190815260200160002060006101000a81549073ffffffffffffffffffffffffffffffffffffffff02191690556001600860008473ffffffffffffffffffffffffffffffffffffffff1673ffffffffffffffffffffffffffffffffffffffff1681526020019081526020016000206000600760008673ffffffffffffffffffffffffffffffffffffffff1673ffffffffffffffffffffffffffffffffffffffff168152602001908152602001600020600101548152602001908152602001600020546109c391906129fa565b600860008473ffffffffffffffffffffffffffffffffffffffff1673ffffffffffffffffffffffffffffffffffffffff1681526020019081526020016000206000600760008673ffffffffffffffffffffffffffffffffffffffff1673ffffffffffffffffffffffffffffffffffffffff16815260200190815260200160002060010154815260200190815260200160002081905550610c5a565b610aac82600760008573ffffffffffffffffffffffffffffffffffffffff1673ffffffffffffffffffffffffffffffffffffffff168152602001908152602001600020600101546001611707565b60066000600760008573ffffffffffffffffffffffffffffffffffffffff1673ffffffffffffffffffffffffffffffffffffffff16815260200190815260200160002060010154815260200190815260200160002060006101000a81549073ffffffffffffffffffffffffffffffffffffffff02191690556001600860008373ffffffffffffffffffffffffffffffffffffffff1673ffffffffffffffffffffffffffffffffffffffff1681526020019081526020016000206000600760008573ffffffffffffffffffffffffffffffffffffffff1673ffffffffffffffffffffffffffffffffffffffff16815260200190815260200160002060010154815260200190815260200160002054610bc391906129fa565b600860008373ffffffffffffffffffffffffffffffffffffffff1673ffffffffffffffffffffffffffffffffffffffff1681526020019081526020016000206000600760008573ffffffffffffffffffffffffffffffffffffffff1673ffffffffffffffffffffffffffffffffffffffff168152602001908152602001600020600101548152602001908152602001600020819055505b50505050565b60608151835114610ca6576040517f08c379a0000000000000000000000000000000000000000000000000000000008152600401610c9d90612aa0565b60405180910390fd5b6000835167ffffffffffffffff811115610cc357610cc26121cc565b5b604051908082528060200260200182016040528015610cf15781602001602082028036833780820191505090505b50905060005b8451811015610d6e57610d3e858281518110610d1657610d15612ac0565b5b6020026020010151858381518110610d3157610d30612ac0565b5b6020026020010151610319565b828281518110610d5157610d50612ac0565b5b60200260200101818152505080610d6790612aef565b9050610cf7565b508091505092915050565b6008602052816000526040600020602052806000526040600020600091509150505481565b3373ffffffffffffffffffffffffffffffffffffffff168273ffffffffffffffffffffffffffffffffffffffff1603610dd657600080fd5b3373ffffffffffffffffffffffffffffffffffffffff166006600083815260200190815260200160002060009054906101000a900473ffffffffffffffffffffffffffffffffffffffff1673ffffffffffffffffffffffffffffffffffffffff1614610e4157600080fd5b60405180604001604052808373ffffffffffffffffffffffffffffffffffffffff16815260200182815250600760003373ffffffffffffffffffffffffffffffffffffffff1673ffffffffffffffffffffffffffffffffffffffff16815260200190815260200160002060008201518160000160006101000a81548173ffffffffffffffffffffffffffffffffffffffff021916908373ffffffffffffffffffffffffffffffffffffffff160217905550602082015181600101559050505050565b610f15610f0e6113de565b838361194d565b5050565b6000600160008473ffffffffffffffffffffffffffffffffffffffff1673ffffffffffffffffffffffffffffffffffffffff16815260200190815260200160002060008373ffffffffffffffffffffffffffffffffffffffff1673ffffffffffffffffffffffffffffffffffffffff16815260200190815260200160002060009054906101000a900460ff16905092915050565b610fb56113de565b73ffffffffffffffffffffffffffffffffffffffff168573ffffffffffffffffffffffffffffffffffffffff161480610ffb5750610ffa85610ff56113de565b610f19565b5b61103a576040517f08c379a0000000000000000000000000000000000000000000000000000000008152600401611031906129ab565b60405180910390fd5b6110478585858585611143565b5050505050565b60076020528060005260406000206000915090508060000160009054906101000a900473ffffffffffffffffffffffffffffffffffffffff16908060010154905082565b6000808273ffffffffffffffffffffffffffffffffffffffff163b119050919050565b60007f01ffc9a7000000000000000000000000000000000000000000000000000000007bffffffffffffffffffffffffffffffffffffffffffffffffffffffff1916827bffffffffffffffffffffffffffffffffffffffffffffffffffffffff1916149050919050565b6001816000016000828254019250508190555050565b600081600001549050919050565b600073ffffffffffffffffffffffffffffffffffffffff168473ffffffffffffffffffffffffffffffffffffffff16036111b2576040517f08c379a00000000000000000000000000000000000000000000000000000000081526004016111a990612ba9565b60405180910390fd5b60006111bc6113de565b905060006111c985611ab9565b905060006111d685611ab9565b90506111e6838989858589611b33565b600080600088815260200190815260200160002060008a73ffffffffffffffffffffffffffffffffffffffff1673ffffffffffffffffffffffffffffffffffffffff1681526020019081526020016000205490508581101561127d576040517f08c379a000000000000000000000000000000000000000000000000000000000815260040161127490612c3b565b60405180910390fd5b85810360008089815260200190815260200160002060008b73ffffffffffffffffffffffffffffffffffffffff1673ffffffffffffffffffffffffffffffffffffffff168152602001908152602001600020819055508560008089815260200190815260200160002060008a73ffffffffffffffffffffffffffffffffffffffff1673ffffffffffffffffffffffffffffffffffffffff168152602001908152602001600020600082825461133291906129fa565b925050819055508773ffffffffffffffffffffffffffffffffffffffff168973ffffffffffffffffffffffffffffffffffffffff168573ffffffffffffffffffffffffffffffffffffffff167fc3d58168c5ae7397731d063d5bbf3d657854427343f4c083240f7aacaa2d0f628a8a6040516113af929190612c5b565b60405180910390a46113c5848a8a86868a611b3b565b6113d3848a8a8a8a8a611b43565b505050505050505050565b600033905090565b815183511461142a576040517f08c379a000000000000000000000000000000000000000000000000000000000815260040161142190612cf6565b60405180910390fd5b600073ffffffffffffffffffffffffffffffffffffffff168473ffffffffffffffffffffffffffffffffffffffff1603611499576040517f08c379a000000000000000000000000000000000000000000000000000000000815260040161149090612ba9565b60405180910390fd5b60006114a36113de565b90506114b3818787878787611b33565b60005b84518110156116645760008582815181106114d4576114d3612ac0565b5b6020026020010151905060008583815181106114f3576114f2612ac0565b5b60200260200101519050600080600084815260200190815260200160002060008b73ffffffffffffffffffffffffffffffffffffffff1673ffffffffffffffffffffffffffffffffffffffff16815260200190815260200160002054905081811015611594576040517f08c379a000000000000000000000000000000000000000000000000000000000815260040161158b90612c3b565b60405180910390fd5b81810360008085815260200190815260200160002060008c73ffffffffffffffffffffffffffffffffffffffff1673ffffffffffffffffffffffffffffffffffffffff168152602001908152602001600020819055508160008085815260200190815260200160002060008b73ffffffffffffffffffffffffffffffffffffffff1673ffffffffffffffffffffffffffffffffffffffff168152602001908152602001600020600082825461164991906129fa565b925050819055505050508061165d90612aef565b90506114b6565b508473ffffffffffffffffffffffffffffffffffffffff168673ffffffffffffffffffffffffffffffffffffffff168273ffffffffffffffffffffffffffffffffffffffff167f4a39dc06d4c0dbc64b70af90fd698a233a518aa5d07e595d983b8c0526c8f7fb87876040516116db929190612d16565b60405180910390a46116f1818787878787611b3b565b6116ff818787878787611d1a565b505050505050565b600073ffffffffffffffffffffffffffffffffffffffff168373ffffffffffffffffffffffffffffffffffffffff1603611776576040517f08c379a000000000000000000000000000000000000000000000000000000000815260040161176d90612dbf565b60405180910390fd5b60006117806113de565b9050600061178d84611ab9565b9050600061179a84611ab9565b90506117ba83876000858560405180602001604052806000815250611b33565b600080600087815260200190815260200160002060008873ffffffffffffffffffffffffffffffffffffffff1673ffffffffffffffffffffffffffffffffffffffff16815260200190815260200160002054905084811015611851576040517f08c379a000000000000000000000000000000000000000000000000000000000815260040161184890612e51565b60405180910390fd5b84810360008088815260200190815260200160002060008973ffffffffffffffffffffffffffffffffffffffff1673ffffffffffffffffffffffffffffffffffffffff16815260200190815260200160002081905550600073ffffffffffffffffffffffffffffffffffffffff168773ffffffffffffffffffffffffffffffffffffffff168573ffffffffffffffffffffffffffffffffffffffff167fc3d58168c5ae7397731d063d5bbf3d657854427343f4c083240f7aacaa2d0f62898960405161191e929190612c5b565b60405180910390a461194484886000868660405180602001604052806000815250611b3b565b50505050505050565b8173ffffffffffffffffffffffffffffffffffffffff168373ffffffffffffffffffffffffffffffffffffffff16036119bb576040517f08c379a00000000000000000000000000000000000000000000000000000000081526004016119b290612ee3565b60405180910390fd5b80600160008573ffffffffffffffffffffffffffffffffffffffff1673ffffffffffffffffffffffffffffffffffffffff16815260200190815260200160002060008473ffffffffffffffffffffffffffffffffffffffff1673ffffffffffffffffffffffffffffffffffffffff16815260200190815260200160002060006101000a81548160ff0219169083151502179055508173ffffffffffffffffffffffffffffffffffffffff168373ffffffffffffffffffffffffffffffffffffffff167f17307eab39ab6107e8899845ad3d59bd9653f200f220920489ca2b5937696c3183604051611aac91906120a3565b60405180910390a3505050565b60606000600167ffffffffffffffff811115611ad857611ad76121cc565b5b604051908082528060200260200182016040528015611b065781602001602082028036833780820191505090505b5090508281600081518110611b1e57611b1d612ac0565b5b60200260200101818152505080915050919050565b505050505050565b505050505050565b611b628473ffffffffffffffffffffffffffffffffffffffff16611092565b15611d12578373ffffffffffffffffffffffffffffffffffffffff1663f23a6e6187878686866040518663ffffffff1660e01b8152600401611ba8959493929190612f58565b6020604051808303816000875af1925050508015611be457506040513d601f19601f82011682018060405250810190611be19190612fc7565b60015b611c8957611bf0613001565b806308c379a003611c4c5750611c04613023565b80611c0f5750611c4e565b806040517f08c379a0000000000000000000000000000000000000000000000000000000008152600401611c43919061217b565b60405180910390fd5b505b6040517f08c379a0000000000000000000000000000000000000000000000000000000008152600401611c8090613125565b60405180910390fd5b63f23a6e6160e01b7bffffffffffffffffffffffffffffffffffffffffffffffffffffffff1916817bffffffffffffffffffffffffffffffffffffffffffffffffffffffff191614611d10576040517f08c379a0000000000000000000000000000000000000000000000000000000008152600401611d07906131b7565b60405180910390fd5b505b505050505050565b611d398473ffffffffffffffffffffffffffffffffffffffff16611092565b15611ee9578373ffffffffffffffffffffffffffffffffffffffff1663bc197c8187878686866040518663ffffffff1660e01b8152600401611d7f9594939291906131d7565b6020604051808303816000875af1925050508015611dbb57506040513d601f19601f82011682018060405250810190611db89190612fc7565b60015b611e6057611dc7613001565b806308c379a003611e235750611ddb613023565b80611de65750611e25565b806040517f08c379a0000000000000000000000000000000000000000000000000000000008152600401611e1a919061217b565b60405180910390fd5b505b6040517f08c379a0000000000000000000000000000000000000000000000000000000008152600401611e5790613125565b60405180910390fd5b63bc197c8160e01b7bffffffffffffffffffffffffffffffffffffffffffffffffffffffff1916817bffffffffffffffffffffffffffffffffffffffffffffffffffffffff191614611ee7576040517f08c379a0000000000000000000000000000000000000000000000000000000008152600401611ede906131b7565b60405180910390fd5b505b505050505050565b6000604051905090565b600080fd5b600080fd5b600073ffffffffffffffffffffffffffffffffffffffff82169050919050565b6000611f3082611f05565b9050919050565b611f4081611f25565b8114611f4b57600080fd5b50565b600081359050611f5d81611f37565b92915050565b6000819050919050565b611f7681611f63565b8114611f8157600080fd5b50565b600081359050611f9381611f6d565b92915050565b60008060408385031215611fb057611faf611efb565b5b6000611fbe85828601611f4e565b9250506020611fcf85828601611f84565b9150509250929050565b611fe281611f63565b82525050565b6000602082019050611ffd6000830184611fd9565b92915050565b60007fffffffff0000000000000000000000000000000000000000000000000000000082169050919050565b61203881612003565b811461204357600080fd5b50565b6000813590506120558161202f565b92915050565b60006020828403121561207157612070611efb565b5b600061207f84828501612046565b91505092915050565b60008115159050919050565b61209d81612088565b82525050565b60006020820190506120b86000830184612094565b92915050565b6000602082840312156120d4576120d3611efb565b5b60006120e284828501611f84565b91505092915050565b600081519050919050565b600082825260208201905092915050565b60005b8381101561212557808201518184015260208101905061210a565b60008484015250505050565b6000601f19601f8301169050919050565b600061214d826120eb565b61215781856120f6565b9350612167818560208601612107565b61217081612131565b840191505092915050565b600060208201905081810360008301526121958184612142565b905092915050565b6121a681611f25565b82525050565b60006020820190506121c1600083018461219d565b92915050565b600080fd5b7f4e487b7100000000000000000000000000000000000000000000000000000000600052604160045260246000fd5b61220482612131565b810181811067ffffffffffffffff82111715612223576122226121cc565b5b80604052505050565b6000612236611ef1565b905061224282826121fb565b919050565b600067ffffffffffffffff821115612262576122616121cc565b5b602082029050602081019050919050565b600080fd5b600061228b61228684612247565b61222c565b905080838252602082019050602084028301858111156122ae576122ad612273565b5b835b818110156122d757806122c38882611f84565b8452602084019350506020810190506122b0565b5050509392505050565b600082601f8301126122f6576122f56121c7565b5b8135612306848260208601612278565b91505092915050565b600080fd5b600067ffffffffffffffff82111561232f5761232e6121cc565b5b61233882612131565b9050602081019050919050565b82818337600083830152505050565b600061236761236284612314565b61222c565b9050828152602081018484840111156123835761238261230f565b5b61238e848285612345565b509392505050565b600082601f8301126123ab576123aa6121c7565b5b81356123bb848260208601612354565b91505092915050565b600080600080600060a086880312156123e0576123df611efb565b5b60006123ee88828901611f4e565b95505060206123ff88828901611f4e565b945050604086013567ffffffffffffffff8111156124205761241f611f00565b5b61242c888289016122e1565b935050606086013567ffffffffffffffff81111561244d5761244c611f00565b5b612459888289016122e1565b925050608086013567ffffffffffffffff81111561247a57612479611f00565b5b61248688828901612396565b9150509295509295909350565b600067ffffffffffffffff8211156124ae576124ad6121cc565b5b602082029050602081019050919050565b60006124d26124cd84612493565b61222c565b905080838252602082019050602084028301858111156124f5576124f4612273565b5b835b8181101561251e578061250a8882611f4e565b8452602084019350506020810190506124f7565b5050509392505050565b600082601f83011261253d5761253c6121c7565b5b813561254d8482602086016124bf565b91505092915050565b6000806040838503121561256d5761256c611efb565b5b600083013567ffffffffffffffff81111561258b5761258a611f00565b5b61259785828601612528565b925050602083013567ffffffffffffffff8111156125b8576125b7611f00565b5b6125c4858286016122e1565b9150509250929050565b600081519050919050565b600082825260208201905092915050565b6000819050602082019050919050565b61260381611f63565b82525050565b600061261583836125fa565b60208301905092915050565b6000602082019050919050565b6000612639826125ce565b61264381856125d9565b935061264e836125ea565b8060005b8381101561267f5781516126668882612609565b975061267183612621565b925050600181019050612652565b5085935050505092915050565b600060208201905081810360008301526126a6818461262e565b905092915050565b6126b781612088565b81146126c257600080fd5b50565b6000813590506126d4816126ae565b92915050565b600080604083850312156126f1576126f0611efb565b5b60006126ff85828601611f4e565b9250506020612710858286016126c5565b9150509250929050565b6000806040838503121561273157612730611efb565b5b600061273f85828601611f4e565b925050602061275085828601611f4e565b9150509250929050565b600080600080600060a0868803121561277657612775611efb565b5b600061278488828901611f4e565b955050602061279588828901611f4e565b94505060406127a688828901611f84565b93505060606127b788828901611f84565b925050608086013567ffffffffffffffff8111156127d8576127d7611f00565b5b6127e488828901612396565b9150509295509295909350565b60006020828403121561280757612806611efb565b5b600061281584828501611f4e565b91505092915050565b6000604082019050612833600083018561219d565b6128406020830184611fd9565b9392505050565b7f455243313135353a2061646472657373207a65726f206973206e6f742061207660008201527f616c6964206f776e657200000000000000000000000000000000000000000000602082015250565b60006128a3602a836120f6565b91506128ae82612847565b604082019050919050565b600060208201905081810360008301526128d281612896565b9050919050565b7f4e487b7100000000000000000000000000000000000000000000000000000000600052602260045260246000fd5b6000600282049050600182168061292057607f821691505b602082108103612933576129326128d9565b5b50919050565b7f455243313135353a2063616c6c6572206973206e6f7420746f6b656e206f776e60008201527f6572206f7220617070726f766564000000000000000000000000000000000000602082015250565b6000612995602e836120f6565b91506129a082612939565b604082019050919050565b600060208201905081810360008301526129c481612988565b9050919050565b7f4e487b7100000000000000000000000000000000000000000000000000000000600052601160045260246000fd5b6000612a0582611f63565b9150612a1083611f63565b9250828201905080821115612a2857612a276129cb565b5b92915050565b7f455243313135353a206163636f756e747320616e6420696473206c656e67746860008201527f206d69736d617463680000000000000000000000000000000000000000000000602082015250565b6000612a8a6029836120f6565b9150612a9582612a2e565b604082019050919050565b60006020820190508181036000830152612ab981612a7d565b9050919050565b7f4e487b7100000000000000000000000000000000000000000000000000000000600052603260045260246000fd5b6000612afa82611f63565b91507fffffffffffffffffffffffffffffffffffffffffffffffffffffffffffffffff8203612b2c57612b2b6129cb565b5b600182019050919050565b7f455243313135353a207472616e7366657220746f20746865207a65726f20616460008201527f6472657373000000000000000000000000000000000000000000000000000000602082015250565b6000612b936025836120f6565b9150612b9e82612b37565b604082019050919050565b60006020820190508181036000830152612bc281612b86565b9050919050565b7f455243313135353a20696e73756666696369656e742062616c616e636520666f60008201527f72207472616e7366657200000000000000000000000000000000000000000000602082015250565b6000612c25602a836120f6565b9150612c3082612bc9565b604082019050919050565b60006020820190508181036000830152612c5481612c18565b9050919050565b6000604082019050612c706000830185611fd9565b612c7d6020830184611fd9565b9392505050565b7f455243313135353a2069647320616e6420616d6f756e7473206c656e6774682060008201527f6d69736d61746368000000000000000000000000000000000000000000000000602082015250565b6000612ce06028836120f6565b9150612ceb82612c84565b604082019050919050565b60006020820190508181036000830152612d0f81612cd3565b9050919050565b60006040820190508181036000830152612d30818561262e565b90508181036020830152612d44818461262e565b90509392505050565b7f455243313135353a206275726e2066726f6d20746865207a65726f206164647260008201527f6573730000000000000000000000000000000000000000000000000000000000602082015250565b6000612da96023836120f6565b9150612db482612d4d565b604082019050919050565b60006020820190508181036000830152612dd881612d9c565b9050919050565b7f455243313135353a206275726e20616d6f756e7420657863656564732062616c60008201527f616e636500000000000000000000000000000000000000000000000000000000602082015250565b6000612e3b6024836120f6565b9150612e4682612ddf565b604082019050919050565b60006020820190508181036000830152612e6a81612e2e565b9050919050565b7f455243313135353a2073657474696e6720617070726f76616c2073746174757360008201527f20666f722073656c660000000000000000000000000000000000000000000000602082015250565b6000612ecd6029836120f6565b9150612ed882612e71565b604082019050919050565b60006020820190508181036000830152612efc81612ec0565b9050919050565b600081519050919050565b600082825260208201905092915050565b6000612f2a82612f03565b612f348185612f0e565b9350612f44818560208601612107565b612f4d81612131565b840191505092915050565b600060a082019050612f6d600083018861219d565b612f7a602083018761219d565b612f876040830186611fd9565b612f946060830185611fd9565b8181036080830152612fa68184612f1f565b90509695505050505050565b600081519050612fc18161202f565b92915050565b600060208284031215612fdd57612fdc611efb565b5b6000612feb84828501612fb2565b91505092915050565b60008160e01c9050919050565b600060033d11156130205760046000803e61301d600051612ff4565b90505b90565b600060443d106130b057613035611ef1565b60043d036004823e80513d602482011167ffffffffffffffff8211171561305d5750506130b0565b808201805167ffffffffffffffff81111561307b57505050506130b0565b80602083010160043d0385018111156130985750505050506130b0565b6130a7826020018501866121fb565b82955050505050505b90565b7f455243313135353a207472616e7366657220746f206e6f6e2d4552433131353560008201527f526563656976657220696d706c656d656e746572000000000000000000000000602082015250565b600061310f6034836120f6565b915061311a826130b3565b604082019050919050565b6000602082019050818103600083015261313e81613102565b9050919050565b7f455243313135353a204552433131353552656365697665722072656a6563746560008201527f6420746f6b656e73000000000000000000000000000000000000000000000000602082015250565b60006131a16028836120f6565b91506131ac82613145565b604082019050919050565b600060208201905081810360008301526131d081613194565b9050919050565b600060a0820190506131ec600083018861219d565b6131f9602083018761219d565b818103604083015261320b818661262e565b9050818103606083015261321f818561262e565b905081810360808301526132338184612f1f565b9050969550505050505056fea2646970667358221220db7564729b67f442919d03c4d685c8743954fdfeccaf11a95d62731bf449629264736f6c63430008110033",
  "immutableReferences": {},
  "source": "// contract without Chainlink VRF \n\npragma solidity ^0.8.15;\n\nimport \"@openzeppelin/contracts/token/ERC1155/ERC1155.sol\";\nimport \"@openzeppelin/contracts/utils/Counters.sol\";\n\ncontract NFTWarV1 is ERC1155 { \n\n    using Counters for Counters.Counter;\n    Counters.Counter private _tokenIds;\n    \n    uint[] private tokenIdList;\n    uint[] private amount;\n\n\n    struct Attack {\n        address counterPlayer;\n        uint nftIdAttacker;\n    }\n\n    mapping(uint => address) public ownerOfNFT;\n    mapping(address => Attack) public Battle;\n    mapping(address => mapping(uint => uint)) public KillCount;\n\n    error ChallengeNotTaken();\n\n    constructor() ERC1155(\"\") {\n        idArray();   // return array of id from 1 to 100\n       _mintBatch(address(this), tokenIdList, amount, \"\"); // mint 100 token. 1 for each token ID\n    }\n\n    function mint() public returns (uint) {\n        _tokenIds.increment();\n        uint nftTokenId = _tokenIds.current();\n       _safeTransferFrom(address(this), msg.sender, nftTokenId, 1, \"\");  // transfer 1 NFT from contract to msg.sender\n       ownerOfNFT[nftTokenId] = msg.sender;\n       return nftTokenId;\n\n    }\n\n    function battle(address counterPlayer, uint _nftId) public {\n        require(counterPlayer != msg.sender);  // prevent user to play with self\n        require(ownerOfNFT[_nftId] == msg.sender);   // check if NFT is owned by msg.sender\n        Battle[msg.sender] = Attack(counterPlayer, _nftId);\n             \n       \n    }\n\n    function result(uint attackRatio) public {\n        address counterPlayer = Battle[msg.sender].counterPlayer;\n        if(Battle[counterPlayer].counterPlayer != msg.sender) revert ChallengeNotTaken(); //check if counter player has submitted NFTid for battle\n\n        address _playerA = msg.sender;\n        address _playerB = Battle[msg.sender].counterPlayer;\n\n        // if attack ratio is more than 50, player A wins\n        if(attackRatio > 50) {  \n            _burn(_playerB, Battle[_playerB].nftIdAttacker, 1);   // burn nft of player B\n            delete ownerOfNFT[Battle[_playerB].nftIdAttacker];\n            KillCount[_playerA][Battle[_playerA].nftIdAttacker] = KillCount[_playerA][Battle[_playerA].nftIdAttacker] + 1;   // add killCount \n        } else {       // else Player B wins\n            _burn(_playerA, Battle[_playerA].nftIdAttacker, 1);    // burn nft of player A\n            delete ownerOfNFT[Battle[_playerA].nftIdAttacker];\n            KillCount[_playerB][Battle[_playerB].nftIdAttacker] = KillCount[_playerB][Battle[_playerB].nftIdAttacker] + 1;   // add killCount\n        }\n\n\n\n\n    }\n\n\n    function idArray() internal {\n        for(uint i=1; i < 101; i++) {\n           tokenIdList.push(i);\n           amount.push(1);\n        }\n    }\n\n}",
  "sourcePath": "/Users/cobra/Desktop/neufi-nft-wars/contracts/NFTWarV1.sol",
  "compiler": {
    "name": "solc",
    "version": "0.8.17+commit.8df45f5f.Emscripten.clang"
  },
  "schemaVersion": "3.4.11",
  "updatedAt": "2023-02-04T17:35:57.801Z",
  "devdoc": {
    "kind": "dev",
    "methods": {
      "balanceOf(address,uint256)": {
        "details": "See {IERC1155-balanceOf}. Requirements: - `account` cannot be the zero address."
      },
      "balanceOfBatch(address[],uint256[])": {
        "details": "See {IERC1155-balanceOfBatch}. Requirements: - `accounts` and `ids` must have the same length."
      },
      "isApprovedForAll(address,address)": {
        "details": "See {IERC1155-isApprovedForAll}."
      },
      "safeBatchTransferFrom(address,address,uint256[],uint256[],bytes)": {
        "details": "See {IERC1155-safeBatchTransferFrom}."
      },
      "safeTransferFrom(address,address,uint256,uint256,bytes)": {
        "details": "See {IERC1155-safeTransferFrom}."
      },
      "setApprovalForAll(address,bool)": {
        "details": "See {IERC1155-setApprovalForAll}."
      },
      "supportsInterface(bytes4)": {
        "details": "See {IERC165-supportsInterface}."
      },
      "uri(uint256)": {
        "details": "See {IERC1155MetadataURI-uri}. This implementation returns the same URI for *all* token types. It relies on the token type ID substitution mechanism https://eips.ethereum.org/EIPS/eip-1155#metadata[defined in the EIP]. Clients calling this function must replace the `\\{id\\}` substring with the actual token type ID."
      }
    },
    "version": 1
  },
  "userdoc": {
    "kind": "user",
    "methods": {},
    "version": 1
  }
}