{
  "contractName": "NFTWar",
  "abi": [
    {
      "inputs": [
        {
          "internalType": "uint64",
          "name": "_subscriptionId",
          "type": "uint64"
        }
      ],
      "stateMutability": "nonpayable",
      "type": "constructor"
    },
    {
      "inputs": [],
      "name": "ChallengeNotTaken",
      "type": "error"
    },
    {
      "inputs": [
        {
          "internalType": "address",
          "name": "have",
          "type": "address"
        },
        {
          "internalType": "address",
          "name": "want",
          "type": "address"
        }
      ],
      "name": "OnlyCoordinatorCanFulfill",
      "type": "error"
    },
    {
      "anonymous": false,
      "inputs": [
        {
          "indexed": true,
          "internalType": "address",
          "name": "account",
          "type": "address"
        },
        {
          "indexed": true,
          "internalType": "address",
          "name": "operator",
          "type": "address"
        },
        {
          "indexed": false,
          "internalType": "bool",
          "name": "approved",
          "type": "bool"
        }
      ],
      "name": "ApprovalForAll",
      "type": "event"
    },
    {
      "anonymous": false,
      "inputs": [
        {
          "indexed": true,
          "internalType": "address",
          "name": "operator",
          "type": "address"
        },
        {
          "indexed": true,
          "internalType": "address",
          "name": "from",
          "type": "address"
        },
        {
          "indexed": true,
          "internalType": "address",
          "name": "to",
          "type": "address"
        },
        {
          "indexed": false,
          "internalType": "uint256[]",
          "name": "ids",
          "type": "uint256[]"
        },
        {
          "indexed": false,
          "internalType": "uint256[]",
          "name": "values",
          "type": "uint256[]"
        }
      ],
      "name": "TransferBatch",
      "type": "event"
    },
    {
      "anonymous": false,
      "inputs": [
        {
          "indexed": true,
          "internalType": "address",
          "name": "operator",
          "type": "address"
        },
        {
          "indexed": true,
          "internalType": "address",
          "name": "from",
          "type": "address"
        },
        {
          "indexed": true,
          "internalType": "address",
          "name": "to",
          "type": "address"
        },
        {
          "indexed": false,
          "internalType": "uint256",
          "name": "id",
          "type": "uint256"
        },
        {
          "indexed": false,
          "internalType": "uint256",
          "name": "value",
          "type": "uint256"
        }
      ],
      "name": "TransferSingle",
      "type": "event"
    },
    {
      "anonymous": false,
      "inputs": [
        {
          "indexed": false,
          "internalType": "string",
          "name": "value",
          "type": "string"
        },
        {
          "indexed": true,
          "internalType": "uint256",
          "name": "id",
          "type": "uint256"
        }
      ],
      "name": "URI",
      "type": "event"
    },
    {
      "inputs": [
        {
          "internalType": "address",
          "name": "",
          "type": "address"
        }
      ],
      "name": "Battle",
      "outputs": [
        {
          "internalType": "address",
          "name": "counterPlayer",
          "type": "address"
        },
        {
          "internalType": "uint256",
          "name": "nftIdAttacker",
          "type": "uint256"
        }
      ],
      "stateMutability": "view",
      "type": "function",
      "constant": true
    },
    {
      "inputs": [
        {
          "internalType": "address",
          "name": "",
          "type": "address"
        },
        {
          "internalType": "uint256",
          "name": "",
          "type": "uint256"
        }
      ],
      "name": "KillCount",
      "outputs": [
        {
          "internalType": "uint256",
          "name": "",
          "type": "uint256"
        }
      ],
      "stateMutability": "view",
      "type": "function",
      "constant": true
    },
    {
      "inputs": [
        {
          "internalType": "address",
          "name": "account",
          "type": "address"
        },
        {
          "internalType": "uint256",
          "name": "id",
          "type": "uint256"
        }
      ],
      "name": "balanceOf",
      "outputs": [
        {
          "internalType": "uint256",
          "name": "",
          "type": "uint256"
        }
      ],
      "stateMutability": "view",
      "type": "function",
      "constant": true
    },
    {
      "inputs": [
        {
          "internalType": "address[]",
          "name": "accounts",
          "type": "address[]"
        },
        {
          "internalType": "uint256[]",
          "name": "ids",
          "type": "uint256[]"
        }
      ],
      "name": "balanceOfBatch",
      "outputs": [
        {
          "internalType": "uint256[]",
          "name": "",
          "type": "uint256[]"
        }
      ],
      "stateMutability": "view",
      "type": "function",
      "constant": true
    },
    {
      "inputs": [
        {
          "internalType": "address",
          "name": "account",
          "type": "address"
        },
        {
          "internalType": "address",
          "name": "operator",
          "type": "address"
        }
      ],
      "name": "isApprovedForAll",
      "outputs": [
        {
          "internalType": "bool",
          "name": "",
          "type": "bool"
        }
      ],
      "stateMutability": "view",
      "type": "function",
      "constant": true
    },
    {
      "inputs": [],
      "name": "numWords",
      "outputs": [
        {
          "internalType": "uint32",
          "name": "",
          "type": "uint32"
        }
      ],
      "stateMutability": "view",
      "type": "function",
      "constant": true
    },
    {
      "inputs": [
        {
          "internalType": "uint256",
          "name": "",
          "type": "uint256"
        }
      ],
      "name": "ownerOfNFT",
      "outputs": [
        {
          "internalType": "address",
          "name": "",
          "type": "address"
        }
      ],
      "stateMutability": "view",
      "type": "function",
      "constant": true
    },
    {
      "inputs": [
        {
          "internalType": "uint256",
          "name": "requestId",
          "type": "uint256"
        },
        {
          "internalType": "uint256[]",
          "name": "randomWords",
          "type": "uint256[]"
        }
      ],
      "name": "rawFulfillRandomWords",
      "outputs": [],
      "stateMutability": "nonpayable",
      "type": "function"
    },
    {
      "inputs": [
        {
          "internalType": "uint256",
          "name": "",
          "type": "uint256"
        }
      ],
      "name": "s_randomWords",
      "outputs": [
        {
          "internalType": "uint256",
          "name": "",
          "type": "uint256"
        }
      ],
      "stateMutability": "view",
      "type": "function",
      "constant": true
    },
    {
      "inputs": [],
      "name": "s_requestId",
      "outputs": [
        {
          "internalType": "uint256",
          "name": "",
          "type": "uint256"
        }
      ],
      "stateMutability": "view",
      "type": "function",
      "constant": true
    },
    {
      "inputs": [
        {
          "internalType": "address",
          "name": "from",
          "type": "address"
        },
        {
          "internalType": "address",
          "name": "to",
          "type": "address"
        },
        {
          "internalType": "uint256[]",
          "name": "ids",
          "type": "uint256[]"
        },
        {
          "internalType": "uint256[]",
          "name": "amounts",
          "type": "uint256[]"
        },
        {
          "internalType": "bytes",
          "name": "data",
          "type": "bytes"
        }
      ],
      "name": "safeBatchTransferFrom",
      "outputs": [],
      "stateMutability": "nonpayable",
      "type": "function"
    },
    {
      "inputs": [
        {
          "internalType": "address",
          "name": "from",
          "type": "address"
        },
        {
          "internalType": "address",
          "name": "to",
          "type": "address"
        },
        {
          "internalType": "uint256",
          "name": "id",
          "type": "uint256"
        },
        {
          "internalType": "uint256",
          "name": "amount",
          "type": "uint256"
        },
        {
          "internalType": "bytes",
          "name": "data",
          "type": "bytes"
        }
      ],
      "name": "safeTransferFrom",
      "outputs": [],
      "stateMutability": "nonpayable",
      "type": "function"
    },
    {
      "inputs": [
        {
          "internalType": "address",
          "name": "operator",
          "type": "address"
        },
        {
          "internalType": "bool",
          "name": "approved",
          "type": "bool"
        }
      ],
      "name": "setApprovalForAll",
      "outputs": [],
      "stateMutability": "nonpayable",
      "type": "function"
    },
    {
      "inputs": [
        {
          "internalType": "bytes4",
          "name": "interfaceId",
          "type": "bytes4"
        }
      ],
      "name": "supportsInterface",
      "outputs": [
        {
          "internalType": "bool",
          "name": "",
          "type": "bool"
        }
      ],
      "stateMutability": "view",
      "type": "function",
      "constant": true
    },
    {
      "inputs": [
        {
          "internalType": "uint256",
          "name": "",
          "type": "uint256"
        }
      ],
      "name": "uri",
      "outputs": [
        {
          "internalType": "string",
          "name": "",
          "type": "string"
        }
      ],
      "stateMutability": "view",
      "type": "function",
      "constant": true
    },
    {
      "inputs": [],
      "name": "mint",
      "outputs": [
        {
          "internalType": "uint256",
          "name": "",
          "type": "uint256"
        }
      ],
      "stateMutability": "nonpayable",
      "type": "function"
    },
    {
      "inputs": [
        {
          "internalType": "address",
          "name": "counterPlayer",
          "type": "address"
        },
        {
          "internalType": "uint256",
          "name": "_nftId",
          "type": "uint256"
        }
      ],
      "name": "battle",
      "outputs": [],
      "stateMutability": "nonpayable",
      "type": "function"
    },
    {
      "inputs": [],
      "name": "result",
      "outputs": [],
      "stateMutability": "nonpayable",
      "type": "function"
    }
  ],
  "bytecode": "0x60a0604052732ca8e0c643bde4c2e08ab1fa0da3401adad7734d600560006101000a81548173ffffffffffffffffffffffffffffffffffffffff021916908373ffffffffffffffffffffffffffffffffffffffff16021790555062030d406005601c6101000a81548163ffffffff021916908363ffffffff1602179055506003600660006101000a81548161ffff021916908361ffff1602179055506003600660026101000a81548163ffffffff021916908363ffffffff1602179055507f79d3d8832d904592c0bf9818b621522c988bb8b0c05cdc3b15aea1b6e8db0c1560001b600755348015620000f157600080fd5b5060405162004b0938038062004b09833981810160405281019062000117919062000875565b600560009054906101000a900473ffffffffffffffffffffffffffffffffffffffff16604051806020016040528060008152506200015b81620002fb60201b60201c565b508073ffffffffffffffffffffffffffffffffffffffff1660808173ffffffffffffffffffffffffffffffffffffffff168152505050600560009054906101000a900473ffffffffffffffffffffffffffffffffffffffff16600360006101000a81548173ffffffffffffffffffffffffffffffffffffffff021916908373ffffffffffffffffffffffffffffffffffffffff16021790555080600560146101000a81548167ffffffffffffffff021916908367ffffffffffffffff1602179055506200022d6200031060201b60201c565b620002f430600a8054806020026020016040519081016040528092919081815260200182805480156200028057602002820191906000526020600020905b8154815260200190600101908083116200026b575b5050505050600b805480602002602001604051908101604052809291908181526020018280548015620002d357602002820191906000526020600020905b815481526020019060010190808311620002be575b5050505050604051806020016040528060008152506200038d60201b60201c565b50620013b0565b80600290816200030c919062000b21565b5050565b6000600190505b60658110156200038a57600a819080600181540180825580915050600190039060005260206000200160009091909190915055600b600190806001815401808255809150506001900390600052602060002001600090919091909150558080620003819062000c37565b91505062000317565b50565b600073ffffffffffffffffffffffffffffffffffffffff168473ffffffffffffffffffffffffffffffffffffffff1603620003ff576040517f08c379a0000000000000000000000000000000000000000000000000000000008152600401620003f69062000d0b565b60405180910390fd5b815183511462000446576040517f08c379a00000000000000000000000000000000000000000000000000000000081526004016200043d9062000da3565b60405180910390fd5b600062000458620005ed60201b60201c565b90506200047181600087878787620005f560201b60201c565b60005b8451811015620005365783818151811062000494576200049362000dc5565b5b6020026020010151600080878481518110620004b557620004b462000dc5565b5b6020026020010151815260200190815260200160002060008873ffffffffffffffffffffffffffffffffffffffff1673ffffffffffffffffffffffffffffffffffffffff168152602001908152602001600020600082825462000519919062000df4565b9250508190555080806200052d9062000c37565b91505062000474565b508473ffffffffffffffffffffffffffffffffffffffff16600073ffffffffffffffffffffffffffffffffffffffff168273ffffffffffffffffffffffffffffffffffffffff167f4a39dc06d4c0dbc64b70af90fd698a233a518aa5d07e595d983b8c0526c8f7fb8787604051620005b092919062000efd565b60405180910390a4620005cf81600087878787620005fd60201b60201c565b620005e6816000878787876200060560201b60201c565b5050505050565b600033905090565b505050505050565b505050505050565b620006318473ffffffffffffffffffffffffffffffffffffffff16620007fe60201b620011c71760201c565b15620007f6578373ffffffffffffffffffffffffffffffffffffffff1663bc197c8187878686866040518663ffffffff1660e01b81526004016200067a95949392919062001017565b6020604051808303816000875af1925050508015620006b957506040513d601f19601f82011682018060405250810190620006b69190620010e6565b60015b6200076a57620006c862001125565b806308c379a0036200072b5750620006df62001180565b80620006ec57506200072d565b806040517f08c379a00000000000000000000000000000000000000000000000000000000081526004016200072291906200125c565b60405180910390fd5b505b6040517f08c379a00000000000000000000000000000000000000000000000000000000081526004016200076190620012f6565b60405180910390fd5b63bc197c8160e01b7bffffffffffffffffffffffffffffffffffffffffffffffffffffffff1916817bffffffffffffffffffffffffffffffffffffffffffffffffffffffff191614620007f4576040517f08c379a0000000000000000000000000000000000000000000000000000000008152600401620007eb906200138e565b60405180910390fd5b505b505050505050565b6000808273ffffffffffffffffffffffffffffffffffffffff163b119050919050565b6000604051905090565b600080fd5b600067ffffffffffffffff82169050919050565b6200084f8162000830565b81146200085b57600080fd5b50565b6000815190506200086f8162000844565b92915050565b6000602082840312156200088e576200088d6200082b565b5b60006200089e848285016200085e565b91505092915050565b600081519050919050565b7f4e487b7100000000000000000000000000000000000000000000000000000000600052604160045260246000fd5b7f4e487b7100000000000000000000000000000000000000000000000000000000600052602260045260246000fd5b600060028204905060018216806200092957607f821691505b6020821081036200093f576200093e620008e1565b5b50919050565b60008190508160005260206000209050919050565b60006020601f8301049050919050565b600082821b905092915050565b600060088302620009a97fffffffffffffffffffffffffffffffffffffffffffffffffffffffffffffffff826200096a565b620009b586836200096a565b95508019841693508086168417925050509392505050565b6000819050919050565b6000819050919050565b600062000a02620009fc620009f684620009cd565b620009d7565b620009cd565b9050919050565b6000819050919050565b62000a1e83620009e1565b62000a3662000a2d8262000a09565b84845462000977565b825550505050565b600090565b62000a4d62000a3e565b62000a5a81848462000a13565b505050565b5b8181101562000a825762000a7660008262000a43565b60018101905062000a60565b5050565b601f82111562000ad15762000a9b8162000945565b62000aa6846200095a565b8101602085101562000ab6578190505b62000ace62000ac5856200095a565b83018262000a5f565b50505b505050565b600082821c905092915050565b600062000af66000198460080262000ad6565b1980831691505092915050565b600062000b11838362000ae3565b9150826002028217905092915050565b62000b2c82620008a7565b67ffffffffffffffff81111562000b485762000b47620008b2565b5b62000b54825462000910565b62000b6182828562000a86565b600060209050601f83116001811462000b99576000841562000b84578287015190505b62000b90858262000b03565b86555062000c00565b601f19841662000ba98662000945565b60005b8281101562000bd35784890151825560018201915060208501945060208101905062000bac565b8683101562000bf3578489015162000bef601f89168262000ae3565b8355505b6001600288020188555050505b505050505050565b7f4e487b7100000000000000000000000000000000000000000000000000000000600052601160045260246000fd5b600062000c4482620009cd565b91507fffffffffffffffffffffffffffffffffffffffffffffffffffffffffffffffff820362000c795762000c7862000c08565b5b600182019050919050565b600082825260208201905092915050565b7f455243313135353a206d696e7420746f20746865207a65726f2061646472657360008201527f7300000000000000000000000000000000000000000000000000000000000000602082015250565b600062000cf360218362000c84565b915062000d008262000c95565b604082019050919050565b6000602082019050818103600083015262000d268162000ce4565b9050919050565b7f455243313135353a2069647320616e6420616d6f756e7473206c656e6774682060008201527f6d69736d61746368000000000000000000000000000000000000000000000000602082015250565b600062000d8b60288362000c84565b915062000d988262000d2d565b604082019050919050565b6000602082019050818103600083015262000dbe8162000d7c565b9050919050565b7f4e487b7100000000000000000000000000000000000000000000000000000000600052603260045260246000fd5b600062000e0182620009cd565b915062000e0e83620009cd565b925082820190508082111562000e295762000e2862000c08565b5b92915050565b600081519050919050565b600082825260208201905092915050565b6000819050602082019050919050565b62000e6681620009cd565b82525050565b600062000e7a838362000e5b565b60208301905092915050565b6000602082019050919050565b600062000ea08262000e2f565b62000eac818562000e3a565b935062000eb98362000e4b565b8060005b8381101562000ef057815162000ed4888262000e6c565b975062000ee18362000e86565b92505060018101905062000ebd565b5085935050505092915050565b6000604082019050818103600083015262000f19818562000e93565b9050818103602083015262000f2f818462000e93565b90509392505050565b600073ffffffffffffffffffffffffffffffffffffffff82169050919050565b600062000f658262000f38565b9050919050565b62000f778162000f58565b82525050565b600081519050919050565b600082825260208201905092915050565b60005b8381101562000fb957808201518184015260208101905062000f9c565b60008484015250505050565b6000601f19601f8301169050919050565b600062000fe38262000f7d565b62000fef818562000f88565b93506200100181856020860162000f99565b6200100c8162000fc5565b840191505092915050565b600060a0820190506200102e600083018862000f6c565b6200103d602083018762000f6c565b818103604083015262001051818662000e93565b9050818103606083015262001067818562000e93565b905081810360808301526200107d818462000fd6565b90509695505050505050565b60007fffffffff0000000000000000000000000000000000000000000000000000000082169050919050565b620010c08162001089565b8114620010cc57600080fd5b50565b600081519050620010e081620010b5565b92915050565b600060208284031215620010ff57620010fe6200082b565b5b60006200110f84828501620010cf565b91505092915050565b60008160e01c9050919050565b600060033d1115620011475760046000803e6200114460005162001118565b90505b90565b620011558262000fc5565b810181811067ffffffffffffffff82111715620011775762001176620008b2565b5b80604052505050565b600060443d1062001218576200119562000821565b60043d036004823e80513d602482011167ffffffffffffffff82111715620011bf57505062001218565b808201805167ffffffffffffffff811115620011df575050505062001218565b80602083010160043d038501811115620011fe57505050505062001218565b6200120f826020018501866200114a565b82955050505050505b90565b60006200122882620008a7565b62001234818562000c84565b93506200124681856020860162000f99565b620012518162000fc5565b840191505092915050565b600060208201905081810360008301526200127881846200121b565b905092915050565b7f455243313135353a207472616e7366657220746f206e6f6e2d4552433131353560008201527f526563656976657220696d706c656d656e746572000000000000000000000000602082015250565b6000620012de60348362000c84565b9150620012eb8262001280565b604082019050919050565b600060208201905081810360008301526200131181620012cf565b9050919050565b7f455243313135353a204552433131353552656365697665722072656a6563746560008201527f6420746f6b656e73000000000000000000000000000000000000000000000000602082015250565b60006200137660288362000c84565b9150620013838262001318565b604082019050919050565b60006020820190508181036000830152620013a98162001367565b9050919050565b608051613736620013d36000396000818161068b01526106df01526137366000f3fe608060405234801561001057600080fd5b50600436106101155760003560e01c80637ccfd7fc116100a2578063e89e106a11610071578063e89e106a146102f0578063e985e9c51461030e578063f242432a1461033e578063f6eaffc81461035a578063ffbe5a481461038a57610115565b80637ccfd7fc1461026a5780638704e5ce1461028857806394205a16146102b8578063a22cb465146102d457610115565b80631fe543e3116100e95780631fe543e3146101c85780632d8a746e146101e45780632eb2c2d6146102145780634e1273f414610230578063653721471461026057610115565b8062fdd58e1461011a57806301ffc9a71461014a5780630e89341c1461017a5780631249c58b146101aa575b600080fd5b610134600480360381019061012f919061224d565b6103bb565b604051610141919061229c565b60405180910390f35b610164600480360381019061015f919061230f565b610483565b6040516101719190612357565b60405180910390f35b610194600480360381019061018f9190612372565b610565565b6040516101a1919061242f565b60405180910390f35b6101b26105f9565b6040516101bf919061229c565b60405180910390f35b6101e260048036038101906101dd9190612599565b610689565b005b6101fe60048036038101906101f99190612372565b610749565b60405161020b9190612604565b60405180910390f35b61022e600480360381019061022991906126d4565b61077c565b005b61024a60048036038101906102459190612866565b61081d565b604051610257919061299c565b60405180910390f35b610268610936565b005b610272610e1b565b60405161027f91906129dd565b60405180910390f35b6102a2600480360381019061029d919061224d565b610e31565b6040516102af919061229c565b60405180910390f35b6102d260048036038101906102cd919061224d565b610e56565b005b6102ee60048036038101906102e99190612a24565b61100e565b005b6102f8611024565b604051610305919061229c565b60405180910390f35b61032860048036038101906103239190612a64565b61102a565b6040516103359190612357565b60405180910390f35b61035860048036038101906103539190612aa4565b6110be565b005b610374600480360381019061036f9190612372565b61115f565b604051610381919061229c565b60405180910390f35b6103a4600480360381019061039f9190612b3b565b611183565b6040516103b2929190612b68565b60405180910390f35b60008073ffffffffffffffffffffffffffffffffffffffff168373ffffffffffffffffffffffffffffffffffffffff160361042b576040517f08c379a000000000000000000000000000000000000000000000000000000000815260040161042290612c03565b60405180910390fd5b60008083815260200190815260200160002060008473ffffffffffffffffffffffffffffffffffffffff1673ffffffffffffffffffffffffffffffffffffffff16815260200190815260200160002054905092915050565b60007fd9b67a26000000000000000000000000000000000000000000000000000000007bffffffffffffffffffffffffffffffffffffffffffffffffffffffff1916827bffffffffffffffffffffffffffffffffffffffffffffffffffffffff1916148061054e57507f0e89341c000000000000000000000000000000000000000000000000000000007bffffffffffffffffffffffffffffffffffffffffffffffffffffffff1916827bffffffffffffffffffffffffffffffffffffffffffffffffffffffff1916145b8061055e575061055d826111ea565b5b9050919050565b60606002805461057490612c52565b80601f01602080910402602001604051908101604052809291908181526020018280546105a090612c52565b80156105ed5780601f106105c2576101008083540402835291602001916105ed565b820191906000526020600020905b8154815290600101906020018083116105d057829003601f168201915b50505050509050919050565b60006106056004611254565b6000610611600461126a565b9050610630303383600160405180602001604052806000815250611278565b33600c600083815260200190815260200160002060006101000a81548173ffffffffffffffffffffffffffffffffffffffff021916908373ffffffffffffffffffffffffffffffffffffffff1602179055508091505090565b7f000000000000000000000000000000000000000000000000000000000000000073ffffffffffffffffffffffffffffffffffffffff163373ffffffffffffffffffffffffffffffffffffffff161461073b57337f00000000000000000000000000000000000000000000000000000000000000006040517f1cf993f4000000000000000000000000000000000000000000000000000000008152600401610732929190612c83565b60405180910390fd5b6107458282611513565b5050565b600c6020528060005260406000206000915054906101000a900473ffffffffffffffffffffffffffffffffffffffff1681565b61078461152e565b73ffffffffffffffffffffffffffffffffffffffff168573ffffffffffffffffffffffffffffffffffffffff1614806107ca57506107c9856107c461152e565b61102a565b5b610809576040517f08c379a000000000000000000000000000000000000000000000000000000000815260040161080090612d1e565b60405180910390fd5b6108168585858585611536565b5050505050565b60608151835114610863576040517f08c379a000000000000000000000000000000000000000000000000000000000815260040161085a90612db0565b60405180910390fd5b6000835167ffffffffffffffff8111156108805761087f612456565b5b6040519080825280602002602001820160405280156108ae5781602001602082028036833780820191505090505b50905060005b845181101561092b576108fb8582815181106108d3576108d2612dd0565b5b60200260200101518583815181106108ee576108ed612dd0565b5b60200260200101516103bb565b82828151811061090e5761090d612dd0565b5b6020026020010181815250508061092490612e2e565b90506108b4565b508091505092915050565b6000600d60003373ffffffffffffffffffffffffffffffffffffffff1673ffffffffffffffffffffffffffffffffffffffff16815260200190815260200160002060000160009054906101000a900473ffffffffffffffffffffffffffffffffffffffff1690503373ffffffffffffffffffffffffffffffffffffffff16600d60008373ffffffffffffffffffffffffffffffffffffffff1673ffffffffffffffffffffffffffffffffffffffff16815260200190815260200160002060000160009054906101000a900473ffffffffffffffffffffffffffffffffffffffff1673ffffffffffffffffffffffffffffffffffffffff1614610a64576040517f8f45fc1c00000000000000000000000000000000000000000000000000000000815260040160405180910390fd5b60003390506000600d60003373ffffffffffffffffffffffffffffffffffffffff1673ffffffffffffffffffffffffffffffffffffffff16815260200190815260200160002060000160009054906101000a900473ffffffffffffffffffffffffffffffffffffffff169050600060646008600081548110610ae957610ae8612dd0565b5b9060005260206000200154610afe9190612ea5565b90506032811115610c9157610b5782600d60008573ffffffffffffffffffffffffffffffffffffffff1673ffffffffffffffffffffffffffffffffffffffff168152602001908152602001600020600101546001611857565b6001600e60008573ffffffffffffffffffffffffffffffffffffffff1673ffffffffffffffffffffffffffffffffffffffff1681526020019081526020016000206000600d60008773ffffffffffffffffffffffffffffffffffffffff1673ffffffffffffffffffffffffffffffffffffffff16815260200190815260200160002060010154815260200190815260200160002054610bf69190612ed6565b600e60008573ffffffffffffffffffffffffffffffffffffffff1673ffffffffffffffffffffffffffffffffffffffff1681526020019081526020016000206000600d60008773ffffffffffffffffffffffffffffffffffffffff1673ffffffffffffffffffffffffffffffffffffffff16815260200190815260200160002060010154815260200190815260200160002081905550610e15565b610cdf83600d60008673ffffffffffffffffffffffffffffffffffffffff1673ffffffffffffffffffffffffffffffffffffffff168152602001908152602001600020600101546001611857565b6001600e60008473ffffffffffffffffffffffffffffffffffffffff1673ffffffffffffffffffffffffffffffffffffffff1681526020019081526020016000206000600d60008673ffffffffffffffffffffffffffffffffffffffff1673ffffffffffffffffffffffffffffffffffffffff16815260200190815260200160002060010154815260200190815260200160002054610d7e9190612ed6565b600e60008473ffffffffffffffffffffffffffffffffffffffff1673ffffffffffffffffffffffffffffffffffffffff1681526020019081526020016000206000600d60008673ffffffffffffffffffffffffffffffffffffffff1673ffffffffffffffffffffffffffffffffffffffff168152602001908152602001600020600101548152602001908152602001600020819055505b50505050565b600660029054906101000a900463ffffffff1681565b600e602052816000526040600020602052806000526040600020600091509150505481565b3373ffffffffffffffffffffffffffffffffffffffff168273ffffffffffffffffffffffffffffffffffffffff1603610e8e57600080fd5b3373ffffffffffffffffffffffffffffffffffffffff16600c600083815260200190815260200160002060009054906101000a900473ffffffffffffffffffffffffffffffffffffffff1673ffffffffffffffffffffffffffffffffffffffff1614610ef957600080fd5b60405180604001604052808373ffffffffffffffffffffffffffffffffffffffff16815260200182815250600d60003373ffffffffffffffffffffffffffffffffffffffff1673ffffffffffffffffffffffffffffffffffffffff16815260200190815260200160002060008201518160000160006101000a81548173ffffffffffffffffffffffffffffffffffffffff021916908373ffffffffffffffffffffffffffffffffffffffff160217905550602082015181600101559050506000600d60008473ffffffffffffffffffffffffffffffffffffffff1673ffffffffffffffffffffffffffffffffffffffff168152602001908152602001600020600101540361100a57611009611a9d565b5b5050565b61102061101961152e565b8383611b97565b5050565b60095481565b6000600160008473ffffffffffffffffffffffffffffffffffffffff1673ffffffffffffffffffffffffffffffffffffffff16815260200190815260200160002060008373ffffffffffffffffffffffffffffffffffffffff1673ffffffffffffffffffffffffffffffffffffffff16815260200190815260200160002060009054906101000a900460ff16905092915050565b6110c661152e565b73ffffffffffffffffffffffffffffffffffffffff168573ffffffffffffffffffffffffffffffffffffffff16148061110c575061110b8561110661152e565b61102a565b5b61114b576040517f08c379a000000000000000000000000000000000000000000000000000000000815260040161114290612d1e565b60405180910390fd5b6111588585858585611278565b5050505050565b6008818154811061116f57600080fd5b906000526020600020016000915090505481565b600d6020528060005260406000206000915090508060000160009054906101000a900473ffffffffffffffffffffffffffffffffffffffff16908060010154905082565b6000808273ffffffffffffffffffffffffffffffffffffffff163b119050919050565b60007f01ffc9a7000000000000000000000000000000000000000000000000000000007bffffffffffffffffffffffffffffffffffffffffffffffffffffffff1916827bffffffffffffffffffffffffffffffffffffffffffffffffffffffff1916149050919050565b6001816000016000828254019250508190555050565b600081600001549050919050565b600073ffffffffffffffffffffffffffffffffffffffff168473ffffffffffffffffffffffffffffffffffffffff16036112e7576040517f08c379a00000000000000000000000000000000000000000000000000000000081526004016112de90612f7c565b60405180910390fd5b60006112f161152e565b905060006112fe85611d03565b9050600061130b85611d03565b905061131b838989858589611d7d565b600080600088815260200190815260200160002060008a73ffffffffffffffffffffffffffffffffffffffff1673ffffffffffffffffffffffffffffffffffffffff168152602001908152602001600020549050858110156113b2576040517f08c379a00000000000000000000000000000000000000000000000000000000081526004016113a99061300e565b60405180910390fd5b85810360008089815260200190815260200160002060008b73ffffffffffffffffffffffffffffffffffffffff1673ffffffffffffffffffffffffffffffffffffffff168152602001908152602001600020819055508560008089815260200190815260200160002060008a73ffffffffffffffffffffffffffffffffffffffff1673ffffffffffffffffffffffffffffffffffffffff16815260200190815260200160002060008282546114679190612ed6565b925050819055508773ffffffffffffffffffffffffffffffffffffffff168973ffffffffffffffffffffffffffffffffffffffff168573ffffffffffffffffffffffffffffffffffffffff167fc3d58168c5ae7397731d063d5bbf3d657854427343f4c083240f7aacaa2d0f628a8a6040516114e492919061302e565b60405180910390a46114fa848a8a86868a611d85565b611508848a8a8a8a8a611d8d565b505050505050505050565b806008908051906020019061152992919061213b565b505050565b600033905090565b815183511461157a576040517f08c379a0000000000000000000000000000000000000000000000000000000008152600401611571906130c9565b60405180910390fd5b600073ffffffffffffffffffffffffffffffffffffffff168473ffffffffffffffffffffffffffffffffffffffff16036115e9576040517f08c379a00000000000000000000000000000000000000000000000000000000081526004016115e090612f7c565b60405180910390fd5b60006115f361152e565b9050611603818787878787611d7d565b60005b84518110156117b457600085828151811061162457611623612dd0565b5b60200260200101519050600085838151811061164357611642612dd0565b5b60200260200101519050600080600084815260200190815260200160002060008b73ffffffffffffffffffffffffffffffffffffffff1673ffffffffffffffffffffffffffffffffffffffff168152602001908152602001600020549050818110156116e4576040517f08c379a00000000000000000000000000000000000000000000000000000000081526004016116db9061300e565b60405180910390fd5b81810360008085815260200190815260200160002060008c73ffffffffffffffffffffffffffffffffffffffff1673ffffffffffffffffffffffffffffffffffffffff168152602001908152602001600020819055508160008085815260200190815260200160002060008b73ffffffffffffffffffffffffffffffffffffffff1673ffffffffffffffffffffffffffffffffffffffff16815260200190815260200160002060008282546117999190612ed6565b92505081905550505050806117ad90612e2e565b9050611606565b508473ffffffffffffffffffffffffffffffffffffffff168673ffffffffffffffffffffffffffffffffffffffff168273ffffffffffffffffffffffffffffffffffffffff167f4a39dc06d4c0dbc64b70af90fd698a233a518aa5d07e595d983b8c0526c8f7fb878760405161182b9291906130e9565b60405180910390a4611841818787878787611d85565b61184f818787878787611f64565b505050505050565b600073ffffffffffffffffffffffffffffffffffffffff168373ffffffffffffffffffffffffffffffffffffffff16036118c6576040517f08c379a00000000000000000000000000000000000000000000000000000000081526004016118bd90613192565b60405180910390fd5b60006118d061152e565b905060006118dd84611d03565b905060006118ea84611d03565b905061190a83876000858560405180602001604052806000815250611d7d565b600080600087815260200190815260200160002060008873ffffffffffffffffffffffffffffffffffffffff1673ffffffffffffffffffffffffffffffffffffffff168152602001908152602001600020549050848110156119a1576040517f08c379a000000000000000000000000000000000000000000000000000000000815260040161199890613224565b60405180910390fd5b84810360008088815260200190815260200160002060008973ffffffffffffffffffffffffffffffffffffffff1673ffffffffffffffffffffffffffffffffffffffff16815260200190815260200160002081905550600073ffffffffffffffffffffffffffffffffffffffff168773ffffffffffffffffffffffffffffffffffffffff168573ffffffffffffffffffffffffffffffffffffffff167fc3d58168c5ae7397731d063d5bbf3d657854427343f4c083240f7aacaa2d0f628989604051611a6e92919061302e565b60405180910390a4611a9484886000868660405180602001604052806000815250611d85565b50505050505050565b600360009054906101000a900473ffffffffffffffffffffffffffffffffffffffff1673ffffffffffffffffffffffffffffffffffffffff16635d3b1d30600754600560149054906101000a900467ffffffffffffffff16600660009054906101000a900461ffff166005601c9054906101000a900463ffffffff16600660029054906101000a900463ffffffff166040518663ffffffff1660e01b8152600401611b4c95949392919061329d565b6020604051808303816000875af1158015611b6b573d6000803e3d6000fd5b505050506040513d601f19601f82011682018060405250810190611b8f9190613305565b600981905550565b8173ffffffffffffffffffffffffffffffffffffffff168373ffffffffffffffffffffffffffffffffffffffff1603611c05576040517f08c379a0000000000000000000000000000000000000000000000000000000008152600401611bfc906133a4565b60405180910390fd5b80600160008573ffffffffffffffffffffffffffffffffffffffff1673ffffffffffffffffffffffffffffffffffffffff16815260200190815260200160002060008473ffffffffffffffffffffffffffffffffffffffff1673ffffffffffffffffffffffffffffffffffffffff16815260200190815260200160002060006101000a81548160ff0219169083151502179055508173ffffffffffffffffffffffffffffffffffffffff168373ffffffffffffffffffffffffffffffffffffffff167f17307eab39ab6107e8899845ad3d59bd9653f200f220920489ca2b5937696c3183604051611cf69190612357565b60405180910390a3505050565b60606000600167ffffffffffffffff811115611d2257611d21612456565b5b604051908082528060200260200182016040528015611d505781602001602082028036833780820191505090505b5090508281600081518110611d6857611d67612dd0565b5b60200260200101818152505080915050919050565b505050505050565b505050505050565b611dac8473ffffffffffffffffffffffffffffffffffffffff166111c7565b15611f5c578373ffffffffffffffffffffffffffffffffffffffff1663f23a6e6187878686866040518663ffffffff1660e01b8152600401611df2959493929190613419565b6020604051808303816000875af1925050508015611e2e57506040513d601f19601f82011682018060405250810190611e2b9190613488565b60015b611ed357611e3a6134c2565b806308c379a003611e965750611e4e6134e4565b80611e595750611e98565b806040517f08c379a0000000000000000000000000000000000000000000000000000000008152600401611e8d919061242f565b60405180910390fd5b505b6040517f08c379a0000000000000000000000000000000000000000000000000000000008152600401611eca906135e6565b60405180910390fd5b63f23a6e6160e01b7bffffffffffffffffffffffffffffffffffffffffffffffffffffffff1916817bffffffffffffffffffffffffffffffffffffffffffffffffffffffff191614611f5a576040517f08c379a0000000000000000000000000000000000000000000000000000000008152600401611f5190613678565b60405180910390fd5b505b505050505050565b611f838473ffffffffffffffffffffffffffffffffffffffff166111c7565b15612133578373ffffffffffffffffffffffffffffffffffffffff1663bc197c8187878686866040518663ffffffff1660e01b8152600401611fc9959493929190613698565b6020604051808303816000875af192505050801561200557506040513d601f19601f820116820180604052508101906120029190613488565b60015b6120aa576120116134c2565b806308c379a00361206d57506120256134e4565b80612030575061206f565b806040517f08c379a0000000000000000000000000000000000000000000000000000000008152600401612064919061242f565b60405180910390fd5b505b6040517f08c379a00000000000000000000000000000000000000000000000000000000081526004016120a1906135e6565b60405180910390fd5b63bc197c8160e01b7bffffffffffffffffffffffffffffffffffffffffffffffffffffffff1916817bffffffffffffffffffffffffffffffffffffffffffffffffffffffff191614612131576040517f08c379a000000000000000000000000000000000000000000000000000000000815260040161212890613678565b60405180910390fd5b505b505050505050565b828054828255906000526020600020908101928215612177579160200282015b8281111561217657825182559160200191906001019061215b565b5b5090506121849190612188565b5090565b5b808211156121a1576000816000905550600101612189565b5090565b6000604051905090565b600080fd5b600080fd5b600073ffffffffffffffffffffffffffffffffffffffff82169050919050565b60006121e4826121b9565b9050919050565b6121f4816121d9565b81146121ff57600080fd5b50565b600081359050612211816121eb565b92915050565b6000819050919050565b61222a81612217565b811461223557600080fd5b50565b60008135905061224781612221565b92915050565b60008060408385031215612264576122636121af565b5b600061227285828601612202565b925050602061228385828601612238565b9150509250929050565b61229681612217565b82525050565b60006020820190506122b1600083018461228d565b92915050565b60007fffffffff0000000000000000000000000000000000000000000000000000000082169050919050565b6122ec816122b7565b81146122f757600080fd5b50565b600081359050612309816122e3565b92915050565b600060208284031215612325576123246121af565b5b6000612333848285016122fa565b91505092915050565b60008115159050919050565b6123518161233c565b82525050565b600060208201905061236c6000830184612348565b92915050565b600060208284031215612388576123876121af565b5b600061239684828501612238565b91505092915050565b600081519050919050565b600082825260208201905092915050565b60005b838110156123d95780820151818401526020810190506123be565b60008484015250505050565b6000601f19601f8301169050919050565b60006124018261239f565b61240b81856123aa565b935061241b8185602086016123bb565b612424816123e5565b840191505092915050565b6000602082019050818103600083015261244981846123f6565b905092915050565b600080fd5b7f4e487b7100000000000000000000000000000000000000000000000000000000600052604160045260246000fd5b61248e826123e5565b810181811067ffffffffffffffff821117156124ad576124ac612456565b5b80604052505050565b60006124c06121a5565b90506124cc8282612485565b919050565b600067ffffffffffffffff8211156124ec576124eb612456565b5b602082029050602081019050919050565b600080fd5b6000612515612510846124d1565b6124b6565b90508083825260208201905060208402830185811115612538576125376124fd565b5b835b81811015612561578061254d8882612238565b84526020840193505060208101905061253a565b5050509392505050565b600082601f8301126125805761257f612451565b5b8135612590848260208601612502565b91505092915050565b600080604083850312156125b0576125af6121af565b5b60006125be85828601612238565b925050602083013567ffffffffffffffff8111156125df576125de6121b4565b5b6125eb8582860161256b565b9150509250929050565b6125fe816121d9565b82525050565b600060208201905061261960008301846125f5565b92915050565b600080fd5b600067ffffffffffffffff82111561263f5761263e612456565b5b612648826123e5565b9050602081019050919050565b82818337600083830152505050565b600061267761267284612624565b6124b6565b9050828152602081018484840111156126935761269261261f565b5b61269e848285612655565b509392505050565b600082601f8301126126bb576126ba612451565b5b81356126cb848260208601612664565b91505092915050565b600080600080600060a086880312156126f0576126ef6121af565b5b60006126fe88828901612202565b955050602061270f88828901612202565b945050604086013567ffffffffffffffff8111156127305761272f6121b4565b5b61273c8882890161256b565b935050606086013567ffffffffffffffff81111561275d5761275c6121b4565b5b6127698882890161256b565b925050608086013567ffffffffffffffff81111561278a576127896121b4565b5b612796888289016126a6565b9150509295509295909350565b600067ffffffffffffffff8211156127be576127bd612456565b5b602082029050602081019050919050565b60006127e26127dd846127a3565b6124b6565b90508083825260208201905060208402830185811115612805576128046124fd565b5b835b8181101561282e578061281a8882612202565b845260208401935050602081019050612807565b5050509392505050565b600082601f83011261284d5761284c612451565b5b813561285d8482602086016127cf565b91505092915050565b6000806040838503121561287d5761287c6121af565b5b600083013567ffffffffffffffff81111561289b5761289a6121b4565b5b6128a785828601612838565b925050602083013567ffffffffffffffff8111156128c8576128c76121b4565b5b6128d48582860161256b565b9150509250929050565b600081519050919050565b600082825260208201905092915050565b6000819050602082019050919050565b61291381612217565b82525050565b6000612925838361290a565b60208301905092915050565b6000602082019050919050565b6000612949826128de565b61295381856128e9565b935061295e836128fa565b8060005b8381101561298f5781516129768882612919565b975061298183612931565b925050600181019050612962565b5085935050505092915050565b600060208201905081810360008301526129b6818461293e565b905092915050565b600063ffffffff82169050919050565b6129d7816129be565b82525050565b60006020820190506129f260008301846129ce565b92915050565b612a018161233c565b8114612a0c57600080fd5b50565b600081359050612a1e816129f8565b92915050565b60008060408385031215612a3b57612a3a6121af565b5b6000612a4985828601612202565b9250506020612a5a85828601612a0f565b9150509250929050565b60008060408385031215612a7b57612a7a6121af565b5b6000612a8985828601612202565b9250506020612a9a85828601612202565b9150509250929050565b600080600080600060a08688031215612ac057612abf6121af565b5b6000612ace88828901612202565b9550506020612adf88828901612202565b9450506040612af088828901612238565b9350506060612b0188828901612238565b925050608086013567ffffffffffffffff811115612b2257612b216121b4565b5b612b2e888289016126a6565b9150509295509295909350565b600060208284031215612b5157612b506121af565b5b6000612b5f84828501612202565b91505092915050565b6000604082019050612b7d60008301856125f5565b612b8a602083018461228d565b9392505050565b7f455243313135353a2061646472657373207a65726f206973206e6f742061207660008201527f616c6964206f776e657200000000000000000000000000000000000000000000602082015250565b6000612bed602a836123aa565b9150612bf882612b91565b604082019050919050565b60006020820190508181036000830152612c1c81612be0565b9050919050565b7f4e487b7100000000000000000000000000000000000000000000000000000000600052602260045260246000fd5b60006002820490506001821680612c6a57607f821691505b602082108103612c7d57612c7c612c23565b5b50919050565b6000604082019050612c9860008301856125f5565b612ca560208301846125f5565b9392505050565b7f455243313135353a2063616c6c6572206973206e6f7420746f6b656e206f776e60008201527f6572206f7220617070726f766564000000000000000000000000000000000000602082015250565b6000612d08602e836123aa565b9150612d1382612cac565b604082019050919050565b60006020820190508181036000830152612d3781612cfb565b9050919050565b7f455243313135353a206163636f756e747320616e6420696473206c656e67746860008201527f206d69736d617463680000000000000000000000000000000000000000000000602082015250565b6000612d9a6029836123aa565b9150612da582612d3e565b604082019050919050565b60006020820190508181036000830152612dc981612d8d565b9050919050565b7f4e487b7100000000000000000000000000000000000000000000000000000000600052603260045260246000fd5b7f4e487b7100000000000000000000000000000000000000000000000000000000600052601160045260246000fd5b6000612e3982612217565b91507fffffffffffffffffffffffffffffffffffffffffffffffffffffffffffffffff8203612e6b57612e6a612dff565b5b600182019050919050565b7f4e487b7100000000000000000000000000000000000000000000000000000000600052601260045260246000fd5b6000612eb082612217565b9150612ebb83612217565b925082612ecb57612eca612e76565b5b828206905092915050565b6000612ee182612217565b9150612eec83612217565b9250828201905080821115612f0457612f03612dff565b5b92915050565b7f455243313135353a207472616e7366657220746f20746865207a65726f20616460008201527f6472657373000000000000000000000000000000000000000000000000000000602082015250565b6000612f666025836123aa565b9150612f7182612f0a565b604082019050919050565b60006020820190508181036000830152612f9581612f59565b9050919050565b7f455243313135353a20696e73756666696369656e742062616c616e636520666f60008201527f72207472616e7366657200000000000000000000000000000000000000000000602082015250565b6000612ff8602a836123aa565b915061300382612f9c565b604082019050919050565b6000602082019050818103600083015261302781612feb565b9050919050565b6000604082019050613043600083018561228d565b613050602083018461228d565b9392505050565b7f455243313135353a2069647320616e6420616d6f756e7473206c656e6774682060008201527f6d69736d61746368000000000000000000000000000000000000000000000000602082015250565b60006130b36028836123aa565b91506130be82613057565b604082019050919050565b600060208201905081810360008301526130e2816130a6565b9050919050565b60006040820190508181036000830152613103818561293e565b90508181036020830152613117818461293e565b90509392505050565b7f455243313135353a206275726e2066726f6d20746865207a65726f206164647260008201527f6573730000000000000000000000000000000000000000000000000000000000602082015250565b600061317c6023836123aa565b915061318782613120565b604082019050919050565b600060208201905081810360008301526131ab8161316f565b9050919050565b7f455243313135353a206275726e20616d6f756e7420657863656564732062616c60008201527f616e636500000000000000000000000000000000000000000000000000000000602082015250565b600061320e6024836123aa565b9150613219826131b2565b604082019050919050565b6000602082019050818103600083015261323d81613201565b9050919050565b6000819050919050565b61325781613244565b82525050565b600067ffffffffffffffff82169050919050565b61327a8161325d565b82525050565b600061ffff82169050919050565b61329781613280565b82525050565b600060a0820190506132b2600083018861324e565b6132bf6020830187613271565b6132cc604083018661328e565b6132d960608301856129ce565b6132e660808301846129ce565b9695505050505050565b6000815190506132ff81612221565b92915050565b60006020828403121561331b5761331a6121af565b5b6000613329848285016132f0565b91505092915050565b7f455243313135353a2073657474696e6720617070726f76616c2073746174757360008201527f20666f722073656c660000000000000000000000000000000000000000000000602082015250565b600061338e6029836123aa565b915061339982613332565b604082019050919050565b600060208201905081810360008301526133bd81613381565b9050919050565b600081519050919050565b600082825260208201905092915050565b60006133eb826133c4565b6133f581856133cf565b93506134058185602086016123bb565b61340e816123e5565b840191505092915050565b600060a08201905061342e60008301886125f5565b61343b60208301876125f5565b613448604083018661228d565b613455606083018561228d565b818103608083015261346781846133e0565b90509695505050505050565b600081519050613482816122e3565b92915050565b60006020828403121561349e5761349d6121af565b5b60006134ac84828501613473565b91505092915050565b60008160e01c9050919050565b600060033d11156134e15760046000803e6134de6000516134b5565b90505b90565b600060443d10613571576134f66121a5565b60043d036004823e80513d602482011167ffffffffffffffff8211171561351e575050613571565b808201805167ffffffffffffffff81111561353c5750505050613571565b80602083010160043d038501811115613559575050505050613571565b61356882602001850186612485565b82955050505050505b90565b7f455243313135353a207472616e7366657220746f206e6f6e2d4552433131353560008201527f526563656976657220696d706c656d656e746572000000000000000000000000602082015250565b60006135d06034836123aa565b91506135db82613574565b604082019050919050565b600060208201905081810360008301526135ff816135c3565b9050919050565b7f455243313135353a204552433131353552656365697665722072656a6563746560008201527f6420746f6b656e73000000000000000000000000000000000000000000000000602082015250565b60006136626028836123aa565b915061366d82613606565b604082019050919050565b6000602082019050818103600083015261369181613655565b9050919050565b600060a0820190506136ad60008301886125f5565b6136ba60208301876125f5565b81810360408301526136cc818661293e565b905081810360608301526136e0818561293e565b905081810360808301526136f481846133e0565b9050969550505050505056fea264697066735822122040f841217bd00c8173dcab09f07d4d85e41d4e0ea65498ff824f0b2302ec9a2b64736f6c63430008110033",
  "immutableReferences": {
    "10": [
      {
        "length": 32,
        "start": 1675
      },
      {
        "length": 32,
        "start": 1759
      }
    ]
  },
  "source": "pragma solidity ^0.8.15;\n\nimport \"@openzeppelin/contracts/token/ERC1155/ERC1155.sol\";\nimport \"@openzeppelin/contracts/utils/Counters.sol\";\nimport \"@chainlink/contracts/src/v0.8/interfaces/VRFCoordinatorV2Interface.sol\";\nimport \"@chainlink/contracts/src/v0.8/VRFConsumerBaseV2.sol\";\n\n\ncontract NFTWar is ERC1155, VRFConsumerBaseV2 {\n\n    VRFCoordinatorV2Interface coordinator; \n\n    using Counters for Counters.Counter;\n    Counters.Counter private _tokenIds;\n\n    address coordinatorAddress = 0x2Ca8E0C643bDe4C2E08ab1fA0da3401AdAD7734D; // Goerli VRF Coordinator address\n    uint64 s_subscriptionId;   // subID from vrf subscription\n    uint32 callbackGasLimit = 200000;\n    uint16 requestConfirmations = 3;  \n    uint32 public numWords =  3;\n    bytes32 keyHash = 0x79d3d8832d904592c0bf9818b621522c988bb8b0c05cdc3b15aea1b6e8db0c15;\n    uint256[] public s_randomWords;\n    uint256 public s_requestId;\n    \n    uint[] private tokenIdList;\n    uint[] private amount;\n\n\n    struct Attack {\n        address counterPlayer;\n        uint nftIdAttacker;\n    }\n\n\n    mapping(uint => address) public ownerOfNFT;\n    mapping(address => Attack) public Battle;\n    mapping(address => mapping(uint => uint)) public KillCount;\n\n    error ChallengeNotTaken();\n\n    constructor(uint64 _subscriptionId) ERC1155(\"\") VRFConsumerBaseV2(coordinatorAddress) {\n        coordinator = VRFCoordinatorV2Interface(coordinatorAddress);\n        s_subscriptionId = _subscriptionId;\n        idArray();   // return array of id from 1 to 100\n       _mintBatch(address(this), tokenIdList, amount, \"\"); // mint 100 token. 1 for each token ID\n    }\n\n    function mint() public returns (uint) {\n        _tokenIds.increment();\n        uint nftTokenId = _tokenIds.current();\n       _safeTransferFrom(address(this), msg.sender, nftTokenId, 1, \"\");  // transfer 1 NFT from contract to msg.sender\n       ownerOfNFT[nftTokenId] = msg.sender;\n       return nftTokenId;\n\n    }\n\n    function battle(address counterPlayer, uint _nftId) public {\n        require(counterPlayer != msg.sender);  // prevent user to play with self\n        require(ownerOfNFT[_nftId] == msg.sender);   // check if NFT is owned by msg.sender\n        Battle[msg.sender] = Attack(counterPlayer, _nftId);\n             \n                                                  \n        if(Battle[counterPlayer].nftIdAttacker == 0) {  // check condition to only allow random number to be requested only once\n            requestRandomWords();                      \n        } \n       \n    }\n\n    function result() public {\n        address counterPlayer = Battle[msg.sender].counterPlayer;\n        if(Battle[counterPlayer].counterPlayer != msg.sender) revert ChallengeNotTaken(); //check if counter player has submitted NFTid for battle\n\n        address _playerA = msg.sender;\n        address _playerB = Battle[msg.sender].counterPlayer;\n\n        uint attackRatio = (s_randomWords[0] % 100);  // random number in range of 100\n\n\n        // if attack ratio is more than 50, player A wins\n        if(attackRatio > 50) {  \n            _burn(_playerB, Battle[_playerB].nftIdAttacker, 1);   // burn nft of player B\n            KillCount[_playerA][Battle[_playerA].nftIdAttacker] = KillCount[_playerA][Battle[_playerA].nftIdAttacker] + 1;   // add killCount \n        } else {       // else Player B wins\n            _burn(_playerA, Battle[_playerA].nftIdAttacker, 1);    // burn nft of player A\n            KillCount[_playerB][Battle[_playerB].nftIdAttacker] = KillCount[_playerB][Battle[_playerB].nftIdAttacker] + 1;   // add killCount\n        }\n\n\n\n\n    }\n\n    function requestRandomWords() private {\n        s_requestId = coordinator.requestRandomWords(\n                      keyHash,\n                      s_subscriptionId,\n                      requestConfirmations,\n                      callbackGasLimit,\n                      numWords\n                );\n    }\n\n    function fulfillRandomWords(uint256, uint256[] memory randomWords) internal override {\n        s_randomWords = randomWords;\n   }\n\n\n    function idArray() internal {\n        for(uint i=1; i < 101; i++) {\n           tokenIdList.push(i);\n           amount.push(1);\n        }\n    }\n\n}",
  "sourcePath": "/Users/cobra/Desktop/neufi-nft-wars/contracts/NFTWar.sol",
  "compiler": {
    "name": "solc",
    "version": "0.8.17+commit.8df45f5f.Emscripten.clang"
  },
  "schemaVersion": "3.4.11",
  "updatedAt": "2023-02-04T16:02:37.558Z",
  "networkType": "ethereum",
  "devdoc": {
    "kind": "dev",
    "methods": {
      "balanceOf(address,uint256)": {
        "details": "See {IERC1155-balanceOf}. Requirements: - `account` cannot be the zero address."
      },
      "balanceOfBatch(address[],uint256[])": {
        "details": "See {IERC1155-balanceOfBatch}. Requirements: - `accounts` and `ids` must have the same length."
      },
      "isApprovedForAll(address,address)": {
        "details": "See {IERC1155-isApprovedForAll}."
      },
      "safeBatchTransferFrom(address,address,uint256[],uint256[],bytes)": {
        "details": "See {IERC1155-safeBatchTransferFrom}."
      },
      "safeTransferFrom(address,address,uint256,uint256,bytes)": {
        "details": "See {IERC1155-safeTransferFrom}."
      },
      "setApprovalForAll(address,bool)": {
        "details": "See {IERC1155-setApprovalForAll}."
      },
      "supportsInterface(bytes4)": {
        "details": "See {IERC165-supportsInterface}."
      },
      "uri(uint256)": {
        "details": "See {IERC1155MetadataURI-uri}. This implementation returns the same URI for *all* token types. It relies on the token type ID substitution mechanism https://eips.ethereum.org/EIPS/eip-1155#metadata[defined in the EIP]. Clients calling this function must replace the `\\{id\\}` substring with the actual token type ID."
      }
    },
    "version": 1
  },
  "userdoc": {
    "kind": "user",
    "methods": {},
    "version": 1
  }
}