{
  "contractName": "NFTWarV2",
  "abi": [
    {
      "inputs": [
        {
          "internalType": "uint64",
          "name": "_subscriptionId",
          "type": "uint64"
        }
      ],
      "stateMutability": "nonpayable",
      "type": "constructor"
    },
    {
      "inputs": [],
      "name": "ChallengeNotTaken",
      "type": "error"
    },
    {
      "inputs": [
        {
          "internalType": "address",
          "name": "have",
          "type": "address"
        },
        {
          "internalType": "address",
          "name": "want",
          "type": "address"
        }
      ],
      "name": "OnlyCoordinatorCanFulfill",
      "type": "error"
    },
    {
      "anonymous": false,
      "inputs": [
        {
          "indexed": true,
          "internalType": "address",
          "name": "account",
          "type": "address"
        },
        {
          "indexed": true,
          "internalType": "address",
          "name": "operator",
          "type": "address"
        },
        {
          "indexed": false,
          "internalType": "bool",
          "name": "approved",
          "type": "bool"
        }
      ],
      "name": "ApprovalForAll",
      "type": "event"
    },
    {
      "anonymous": false,
      "inputs": [
        {
          "indexed": true,
          "internalType": "address",
          "name": "operator",
          "type": "address"
        },
        {
          "indexed": true,
          "internalType": "address",
          "name": "from",
          "type": "address"
        },
        {
          "indexed": true,
          "internalType": "address",
          "name": "to",
          "type": "address"
        },
        {
          "indexed": false,
          "internalType": "uint256[]",
          "name": "ids",
          "type": "uint256[]"
        },
        {
          "indexed": false,
          "internalType": "uint256[]",
          "name": "values",
          "type": "uint256[]"
        }
      ],
      "name": "TransferBatch",
      "type": "event"
    },
    {
      "anonymous": false,
      "inputs": [
        {
          "indexed": true,
          "internalType": "address",
          "name": "operator",
          "type": "address"
        },
        {
          "indexed": true,
          "internalType": "address",
          "name": "from",
          "type": "address"
        },
        {
          "indexed": true,
          "internalType": "address",
          "name": "to",
          "type": "address"
        },
        {
          "indexed": false,
          "internalType": "uint256",
          "name": "id",
          "type": "uint256"
        },
        {
          "indexed": false,
          "internalType": "uint256",
          "name": "value",
          "type": "uint256"
        }
      ],
      "name": "TransferSingle",
      "type": "event"
    },
    {
      "anonymous": false,
      "inputs": [
        {
          "indexed": false,
          "internalType": "string",
          "name": "value",
          "type": "string"
        },
        {
          "indexed": true,
          "internalType": "uint256",
          "name": "id",
          "type": "uint256"
        }
      ],
      "name": "URI",
      "type": "event"
    },
    {
      "inputs": [
        {
          "internalType": "address",
          "name": "",
          "type": "address"
        }
      ],
      "name": "Battle",
      "outputs": [
        {
          "internalType": "address",
          "name": "counterPlayer",
          "type": "address"
        },
        {
          "internalType": "uint256",
          "name": "nftIdAttacker",
          "type": "uint256"
        }
      ],
      "stateMutability": "view",
      "type": "function",
      "constant": true
    },
    {
      "inputs": [
        {
          "internalType": "address",
          "name": "",
          "type": "address"
        },
        {
          "internalType": "uint256",
          "name": "",
          "type": "uint256"
        }
      ],
      "name": "KillCount",
      "outputs": [
        {
          "internalType": "uint256",
          "name": "",
          "type": "uint256"
        }
      ],
      "stateMutability": "view",
      "type": "function",
      "constant": true
    },
    {
      "inputs": [
        {
          "internalType": "address",
          "name": "account",
          "type": "address"
        },
        {
          "internalType": "uint256",
          "name": "id",
          "type": "uint256"
        }
      ],
      "name": "balanceOf",
      "outputs": [
        {
          "internalType": "uint256",
          "name": "",
          "type": "uint256"
        }
      ],
      "stateMutability": "view",
      "type": "function",
      "constant": true
    },
    {
      "inputs": [
        {
          "internalType": "address[]",
          "name": "accounts",
          "type": "address[]"
        },
        {
          "internalType": "uint256[]",
          "name": "ids",
          "type": "uint256[]"
        }
      ],
      "name": "balanceOfBatch",
      "outputs": [
        {
          "internalType": "uint256[]",
          "name": "",
          "type": "uint256[]"
        }
      ],
      "stateMutability": "view",
      "type": "function",
      "constant": true
    },
    {
      "inputs": [
        {
          "internalType": "address",
          "name": "account",
          "type": "address"
        },
        {
          "internalType": "address",
          "name": "operator",
          "type": "address"
        }
      ],
      "name": "isApprovedForAll",
      "outputs": [
        {
          "internalType": "bool",
          "name": "",
          "type": "bool"
        }
      ],
      "stateMutability": "view",
      "type": "function",
      "constant": true
    },
    {
      "inputs": [],
      "name": "numWords",
      "outputs": [
        {
          "internalType": "uint32",
          "name": "",
          "type": "uint32"
        }
      ],
      "stateMutability": "view",
      "type": "function",
      "constant": true
    },
    {
      "inputs": [
        {
          "internalType": "uint256",
          "name": "",
          "type": "uint256"
        }
      ],
      "name": "ownerOfNFT",
      "outputs": [
        {
          "internalType": "address",
          "name": "",
          "type": "address"
        }
      ],
      "stateMutability": "view",
      "type": "function",
      "constant": true
    },
    {
      "inputs": [
        {
          "internalType": "uint256",
          "name": "requestId",
          "type": "uint256"
        },
        {
          "internalType": "uint256[]",
          "name": "randomWords",
          "type": "uint256[]"
        }
      ],
      "name": "rawFulfillRandomWords",
      "outputs": [],
      "stateMutability": "nonpayable",
      "type": "function"
    },
    {
      "inputs": [
        {
          "internalType": "uint256",
          "name": "",
          "type": "uint256"
        }
      ],
      "name": "s_randomWords",
      "outputs": [
        {
          "internalType": "uint256",
          "name": "",
          "type": "uint256"
        }
      ],
      "stateMutability": "view",
      "type": "function",
      "constant": true
    },
    {
      "inputs": [],
      "name": "s_requestId",
      "outputs": [
        {
          "internalType": "uint256",
          "name": "",
          "type": "uint256"
        }
      ],
      "stateMutability": "view",
      "type": "function",
      "constant": true
    },
    {
      "inputs": [
        {
          "internalType": "address",
          "name": "from",
          "type": "address"
        },
        {
          "internalType": "address",
          "name": "to",
          "type": "address"
        },
        {
          "internalType": "uint256[]",
          "name": "ids",
          "type": "uint256[]"
        },
        {
          "internalType": "uint256[]",
          "name": "amounts",
          "type": "uint256[]"
        },
        {
          "internalType": "bytes",
          "name": "data",
          "type": "bytes"
        }
      ],
      "name": "safeBatchTransferFrom",
      "outputs": [],
      "stateMutability": "nonpayable",
      "type": "function"
    },
    {
      "inputs": [
        {
          "internalType": "address",
          "name": "from",
          "type": "address"
        },
        {
          "internalType": "address",
          "name": "to",
          "type": "address"
        },
        {
          "internalType": "uint256",
          "name": "id",
          "type": "uint256"
        },
        {
          "internalType": "uint256",
          "name": "amount",
          "type": "uint256"
        },
        {
          "internalType": "bytes",
          "name": "data",
          "type": "bytes"
        }
      ],
      "name": "safeTransferFrom",
      "outputs": [],
      "stateMutability": "nonpayable",
      "type": "function"
    },
    {
      "inputs": [
        {
          "internalType": "address",
          "name": "operator",
          "type": "address"
        },
        {
          "internalType": "bool",
          "name": "approved",
          "type": "bool"
        }
      ],
      "name": "setApprovalForAll",
      "outputs": [],
      "stateMutability": "nonpayable",
      "type": "function"
    },
    {
      "inputs": [
        {
          "internalType": "bytes4",
          "name": "interfaceId",
          "type": "bytes4"
        }
      ],
      "name": "supportsInterface",
      "outputs": [
        {
          "internalType": "bool",
          "name": "",
          "type": "bool"
        }
      ],
      "stateMutability": "view",
      "type": "function",
      "constant": true
    },
    {
      "inputs": [
        {
          "internalType": "uint256",
          "name": "",
          "type": "uint256"
        }
      ],
      "name": "uri",
      "outputs": [
        {
          "internalType": "string",
          "name": "",
          "type": "string"
        }
      ],
      "stateMutability": "view",
      "type": "function",
      "constant": true
    },
    {
      "inputs": [],
      "name": "mint",
      "outputs": [
        {
          "internalType": "uint256",
          "name": "",
          "type": "uint256"
        }
      ],
      "stateMutability": "nonpayable",
      "type": "function"
    },
    {
      "inputs": [
        {
          "internalType": "address",
          "name": "counterPlayer",
          "type": "address"
        },
        {
          "internalType": "uint256",
          "name": "_nftId",
          "type": "uint256"
        }
      ],
      "name": "battle",
      "outputs": [],
      "stateMutability": "nonpayable",
      "type": "function"
    },
    {
      "inputs": [],
      "name": "result",
      "outputs": [
        {
          "internalType": "uint256",
          "name": "",
          "type": "uint256"
        }
      ],
      "stateMutability": "nonpayable",
      "type": "function"
    }
  ],
  "bytecode": "0x60a0604052732ca8e0c643bde4c2e08ab1fa0da3401adad7734d600560006101000a81548173ffffffffffffffffffffffffffffffffffffffff021916908373ffffffffffffffffffffffffffffffffffffffff16021790555062030d406005601c6101000a81548163ffffffff021916908363ffffffff1602179055506003600660006101000a81548161ffff021916908361ffff1602179055506003600660026101000a81548163ffffffff021916908363ffffffff1602179055507f79d3d8832d904592c0bf9818b621522c988bb8b0c05cdc3b15aea1b6e8db0c1560001b600755348015620000f157600080fd5b5060405162004c1b38038062004c1b833981810160405281019062000117919062000875565b600560009054906101000a900473ffffffffffffffffffffffffffffffffffffffff16604051806020016040528060008152506200015b81620002fb60201b60201c565b508073ffffffffffffffffffffffffffffffffffffffff1660808173ffffffffffffffffffffffffffffffffffffffff168152505050600560009054906101000a900473ffffffffffffffffffffffffffffffffffffffff16600360006101000a81548173ffffffffffffffffffffffffffffffffffffffff021916908373ffffffffffffffffffffffffffffffffffffffff16021790555080600560146101000a81548167ffffffffffffffff021916908367ffffffffffffffff1602179055506200022d6200031060201b60201c565b620002f430600a8054806020026020016040519081016040528092919081815260200182805480156200028057602002820191906000526020600020905b8154815260200190600101908083116200026b575b5050505050600b805480602002602001604051908101604052809291908181526020018280548015620002d357602002820191906000526020600020905b815481526020019060010190808311620002be575b5050505050604051806020016040528060008152506200038d60201b60201c565b50620013b0565b80600290816200030c919062000b21565b5050565b6000600190505b60658110156200038a57600a819080600181540180825580915050600190039060005260206000200160009091909190915055600b600190806001815401808255809150506001900390600052602060002001600090919091909150558080620003819062000c37565b91505062000317565b50565b600073ffffffffffffffffffffffffffffffffffffffff168473ffffffffffffffffffffffffffffffffffffffff1603620003ff576040517f08c379a0000000000000000000000000000000000000000000000000000000008152600401620003f69062000d0b565b60405180910390fd5b815183511462000446576040517f08c379a00000000000000000000000000000000000000000000000000000000081526004016200043d9062000da3565b60405180910390fd5b600062000458620005ed60201b60201c565b90506200047181600087878787620005f560201b60201c565b60005b8451811015620005365783818151811062000494576200049362000dc5565b5b6020026020010151600080878481518110620004b557620004b462000dc5565b5b6020026020010151815260200190815260200160002060008873ffffffffffffffffffffffffffffffffffffffff1673ffffffffffffffffffffffffffffffffffffffff168152602001908152602001600020600082825462000519919062000df4565b9250508190555080806200052d9062000c37565b91505062000474565b508473ffffffffffffffffffffffffffffffffffffffff16600073ffffffffffffffffffffffffffffffffffffffff168273ffffffffffffffffffffffffffffffffffffffff167f4a39dc06d4c0dbc64b70af90fd698a233a518aa5d07e595d983b8c0526c8f7fb8787604051620005b092919062000efd565b60405180910390a4620005cf81600087878787620005fd60201b60201c565b620005e6816000878787876200060560201b60201c565b5050505050565b600033905090565b505050505050565b505050505050565b620006318473ffffffffffffffffffffffffffffffffffffffff16620007fe60201b620012d91760201c565b15620007f6578373ffffffffffffffffffffffffffffffffffffffff1663bc197c8187878686866040518663ffffffff1660e01b81526004016200067a95949392919062001017565b6020604051808303816000875af1925050508015620006b957506040513d601f19601f82011682018060405250810190620006b69190620010e6565b60015b6200076a57620006c862001125565b806308c379a0036200072b5750620006df62001180565b80620006ec57506200072d565b806040517f08c379a00000000000000000000000000000000000000000000000000000000081526004016200072291906200125c565b60405180910390fd5b505b6040517f08c379a00000000000000000000000000000000000000000000000000000000081526004016200076190620012f6565b60405180910390fd5b63bc197c8160e01b7bffffffffffffffffffffffffffffffffffffffffffffffffffffffff1916817bffffffffffffffffffffffffffffffffffffffffffffffffffffffff191614620007f4576040517f08c379a0000000000000000000000000000000000000000000000000000000008152600401620007eb906200138e565b60405180910390fd5b505b505050505050565b6000808273ffffffffffffffffffffffffffffffffffffffff163b119050919050565b6000604051905090565b600080fd5b600067ffffffffffffffff82169050919050565b6200084f8162000830565b81146200085b57600080fd5b50565b6000815190506200086f8162000844565b92915050565b6000602082840312156200088e576200088d6200082b565b5b60006200089e848285016200085e565b91505092915050565b600081519050919050565b7f4e487b7100000000000000000000000000000000000000000000000000000000600052604160045260246000fd5b7f4e487b7100000000000000000000000000000000000000000000000000000000600052602260045260246000fd5b600060028204905060018216806200092957607f821691505b6020821081036200093f576200093e620008e1565b5b50919050565b60008190508160005260206000209050919050565b60006020601f8301049050919050565b600082821b905092915050565b600060088302620009a97fffffffffffffffffffffffffffffffffffffffffffffffffffffffffffffffff826200096a565b620009b586836200096a565b95508019841693508086168417925050509392505050565b6000819050919050565b6000819050919050565b600062000a02620009fc620009f684620009cd565b620009d7565b620009cd565b9050919050565b6000819050919050565b62000a1e83620009e1565b62000a3662000a2d8262000a09565b84845462000977565b825550505050565b600090565b62000a4d62000a3e565b62000a5a81848462000a13565b505050565b5b8181101562000a825762000a7660008262000a43565b60018101905062000a60565b5050565b601f82111562000ad15762000a9b8162000945565b62000aa6846200095a565b8101602085101562000ab6578190505b62000ace62000ac5856200095a565b83018262000a5f565b50505b505050565b600082821c905092915050565b600062000af66000198460080262000ad6565b1980831691505092915050565b600062000b11838362000ae3565b9150826002028217905092915050565b62000b2c82620008a7565b67ffffffffffffffff81111562000b485762000b47620008b2565b5b62000b54825462000910565b62000b6182828562000a86565b600060209050601f83116001811462000b99576000841562000b84578287015190505b62000b90858262000b03565b86555062000c00565b601f19841662000ba98662000945565b60005b8281101562000bd35784890151825560018201915060208501945060208101905062000bac565b8683101562000bf3578489015162000bef601f89168262000ae3565b8355505b6001600288020188555050505b505050505050565b7f4e487b7100000000000000000000000000000000000000000000000000000000600052601160045260246000fd5b600062000c4482620009cd565b91507fffffffffffffffffffffffffffffffffffffffffffffffffffffffffffffffff820362000c795762000c7862000c08565b5b600182019050919050565b600082825260208201905092915050565b7f455243313135353a206d696e7420746f20746865207a65726f2061646472657360008201527f7300000000000000000000000000000000000000000000000000000000000000602082015250565b600062000cf360218362000c84565b915062000d008262000c95565b604082019050919050565b6000602082019050818103600083015262000d268162000ce4565b9050919050565b7f455243313135353a2069647320616e6420616d6f756e7473206c656e6774682060008201527f6d69736d61746368000000000000000000000000000000000000000000000000602082015250565b600062000d8b60288362000c84565b915062000d988262000d2d565b604082019050919050565b6000602082019050818103600083015262000dbe8162000d7c565b9050919050565b7f4e487b7100000000000000000000000000000000000000000000000000000000600052603260045260246000fd5b600062000e0182620009cd565b915062000e0e83620009cd565b925082820190508082111562000e295762000e2862000c08565b5b92915050565b600081519050919050565b600082825260208201905092915050565b6000819050602082019050919050565b62000e6681620009cd565b82525050565b600062000e7a838362000e5b565b60208301905092915050565b6000602082019050919050565b600062000ea08262000e2f565b62000eac818562000e3a565b935062000eb98362000e4b565b8060005b8381101562000ef057815162000ed4888262000e6c565b975062000ee18362000e86565b92505060018101905062000ebd565b5085935050505092915050565b6000604082019050818103600083015262000f19818562000e93565b9050818103602083015262000f2f818462000e93565b90509392505050565b600073ffffffffffffffffffffffffffffffffffffffff82169050919050565b600062000f658262000f38565b9050919050565b62000f778162000f58565b82525050565b600081519050919050565b600082825260208201905092915050565b60005b8381101562000fb957808201518184015260208101905062000f9c565b60008484015250505050565b6000601f19601f8301169050919050565b600062000fe38262000f7d565b62000fef818562000f88565b93506200100181856020860162000f99565b6200100c8162000fc5565b840191505092915050565b600060a0820190506200102e600083018862000f6c565b6200103d602083018762000f6c565b818103604083015262001051818662000e93565b9050818103606083015262001067818562000e93565b905081810360808301526200107d818462000fd6565b90509695505050505050565b60007fffffffff0000000000000000000000000000000000000000000000000000000082169050919050565b620010c08162001089565b8114620010cc57600080fd5b50565b600081519050620010e081620010b5565b92915050565b600060208284031215620010ff57620010fe6200082b565b5b60006200110f84828501620010cf565b91505092915050565b60008160e01c9050919050565b600060033d1115620011475760046000803e6200114460005162001118565b90505b90565b620011558262000fc5565b810181811067ffffffffffffffff82111715620011775762001176620008b2565b5b80604052505050565b600060443d1062001218576200119562000821565b60043d036004823e80513d602482011167ffffffffffffffff82111715620011bf57505062001218565b808201805167ffffffffffffffff811115620011df575050505062001218565b80602083010160043d038501811115620011fe57505050505062001218565b6200120f826020018501866200114a565b82955050505050505b90565b60006200122882620008a7565b62001234818562000c84565b93506200124681856020860162000f99565b620012518162000fc5565b840191505092915050565b600060208201905081810360008301526200127881846200121b565b905092915050565b7f455243313135353a207472616e7366657220746f206e6f6e2d4552433131353560008201527f526563656976657220696d706c656d656e746572000000000000000000000000602082015250565b6000620012de60348362000c84565b9150620012eb8262001280565b604082019050919050565b600060208201905081810360008301526200131181620012cf565b9050919050565b7f455243313135353a204552433131353552656365697665722072656a6563746560008201527f6420746f6b656e73000000000000000000000000000000000000000000000000602082015250565b60006200137660288362000c84565b9150620013838262001318565b604082019050919050565b60006020820190508181036000830152620013a98162001367565b9050919050565b608051613848620013d36000396000818161069f01526106f301526138486000f3fe608060405234801561001057600080fd5b50600436106101155760003560e01c80637ccfd7fc116100a2578063e89e106a11610071578063e89e106a14610304578063e985e9c514610322578063f242432a14610352578063f6eaffc81461036e578063ffbe5a481461039e57610115565b80637ccfd7fc1461027e5780638704e5ce1461029c57806394205a16146102cc578063a22cb465146102e857610115565b80631fe543e3116100e95780631fe543e3146101c85780632d8a746e146101e45780632eb2c2d6146102145780634e1273f414610230578063653721471461026057610115565b8062fdd58e1461011a57806301ffc9a71461014a5780630e89341c1461017a5780631249c58b146101aa575b600080fd5b610134600480360381019061012f919061235f565b6103cf565b60405161014191906123ae565b60405180910390f35b610164600480360381019061015f9190612421565b610497565b6040516101719190612469565b60405180910390f35b610194600480360381019061018f9190612484565b610579565b6040516101a19190612541565b60405180910390f35b6101b261060d565b6040516101bf91906123ae565b60405180910390f35b6101e260048036038101906101dd91906126ab565b61069d565b005b6101fe60048036038101906101f99190612484565b61075d565b60405161020b9190612716565b60405180910390f35b61022e600480360381019061022991906127e6565b610790565b005b61024a60048036038101906102459190612978565b610831565b6040516102579190612aae565b60405180910390f35b61026861094a565b60405161027591906123ae565b60405180910390f35b610286610f2d565b6040516102939190612aef565b60405180910390f35b6102b660048036038101906102b1919061235f565b610f43565b6040516102c391906123ae565b60405180910390f35b6102e660048036038101906102e1919061235f565b610f68565b005b61030260048036038101906102fd9190612b36565b611120565b005b61030c611136565b60405161031991906123ae565b60405180910390f35b61033c60048036038101906103379190612b76565b61113c565b6040516103499190612469565b60405180910390f35b61036c60048036038101906103679190612bb6565b6111d0565b005b61038860048036038101906103839190612484565b611271565b60405161039591906123ae565b60405180910390f35b6103b860048036038101906103b39190612c4d565b611295565b6040516103c6929190612c7a565b60405180910390f35b60008073ffffffffffffffffffffffffffffffffffffffff168373ffffffffffffffffffffffffffffffffffffffff160361043f576040517f08c379a000000000000000000000000000000000000000000000000000000000815260040161043690612d15565b60405180910390fd5b60008083815260200190815260200160002060008473ffffffffffffffffffffffffffffffffffffffff1673ffffffffffffffffffffffffffffffffffffffff16815260200190815260200160002054905092915050565b60007fd9b67a26000000000000000000000000000000000000000000000000000000007bffffffffffffffffffffffffffffffffffffffffffffffffffffffff1916827bffffffffffffffffffffffffffffffffffffffffffffffffffffffff1916148061056257507f0e89341c000000000000000000000000000000000000000000000000000000007bffffffffffffffffffffffffffffffffffffffffffffffffffffffff1916827bffffffffffffffffffffffffffffffffffffffffffffffffffffffff1916145b806105725750610571826112fc565b5b9050919050565b60606002805461058890612d64565b80601f01602080910402602001604051908101604052809291908181526020018280546105b490612d64565b80156106015780601f106105d657610100808354040283529160200191610601565b820191906000526020600020905b8154815290600101906020018083116105e457829003601f168201915b50505050509050919050565b60006106196004611366565b6000610625600461137c565b905061064430338360016040518060200160405280600081525061138a565b33600c600083815260200190815260200160002060006101000a81548173ffffffffffffffffffffffffffffffffffffffff021916908373ffffffffffffffffffffffffffffffffffffffff1602179055508091505090565b7f000000000000000000000000000000000000000000000000000000000000000073ffffffffffffffffffffffffffffffffffffffff163373ffffffffffffffffffffffffffffffffffffffff161461074f57337f00000000000000000000000000000000000000000000000000000000000000006040517f1cf993f4000000000000000000000000000000000000000000000000000000008152600401610746929190612d95565b60405180910390fd5b6107598282611625565b5050565b600c6020528060005260406000206000915054906101000a900473ffffffffffffffffffffffffffffffffffffffff1681565b610798611640565b73ffffffffffffffffffffffffffffffffffffffff168573ffffffffffffffffffffffffffffffffffffffff1614806107de57506107dd856107d8611640565b61113c565b5b61081d576040517f08c379a000000000000000000000000000000000000000000000000000000000815260040161081490612e30565b60405180910390fd5b61082a8585858585611648565b5050505050565b60608151835114610877576040517f08c379a000000000000000000000000000000000000000000000000000000000815260040161086e90612ec2565b60405180910390fd5b6000835167ffffffffffffffff81111561089457610893612568565b5b6040519080825280602002602001820160405280156108c25781602001602082028036833780820191505090505b50905060005b845181101561093f5761090f8582815181106108e7576108e6612ee2565b5b602002602001015185838151811061090257610901612ee2565b5b60200260200101516103cf565b82828151811061092257610921612ee2565b5b6020026020010181815250508061093890612f40565b90506108c8565b508091505092915050565b600080600d60003373ffffffffffffffffffffffffffffffffffffffff1673ffffffffffffffffffffffffffffffffffffffff16815260200190815260200160002060000160009054906101000a900473ffffffffffffffffffffffffffffffffffffffff1690503373ffffffffffffffffffffffffffffffffffffffff16600d60008373ffffffffffffffffffffffffffffffffffffffff1673ffffffffffffffffffffffffffffffffffffffff16815260200190815260200160002060000160009054906101000a900473ffffffffffffffffffffffffffffffffffffffff1673ffffffffffffffffffffffffffffffffffffffff1614610a79576040517f8f45fc1c00000000000000000000000000000000000000000000000000000000815260040160405180910390fd5b60003390506000600d60003373ffffffffffffffffffffffffffffffffffffffff1673ffffffffffffffffffffffffffffffffffffffff16815260200190815260200160002060000160009054906101000a900473ffffffffffffffffffffffffffffffffffffffff169050600060646008600081548110610afe57610afd612ee2565b5b9060005260206000200154610b139190612fb7565b90506032811115610d2657610b6c82600d60008573ffffffffffffffffffffffffffffffffffffffff1673ffffffffffffffffffffffffffffffffffffffff168152602001908152602001600020600101546001611969565b600c6000600d60008573ffffffffffffffffffffffffffffffffffffffff1673ffffffffffffffffffffffffffffffffffffffff16815260200190815260200160002060010154815260200190815260200160002060006101000a81549073ffffffffffffffffffffffffffffffffffffffff02191690556001600e60008573ffffffffffffffffffffffffffffffffffffffff1673ffffffffffffffffffffffffffffffffffffffff1681526020019081526020016000206000600d60008773ffffffffffffffffffffffffffffffffffffffff1673ffffffffffffffffffffffffffffffffffffffff16815260200190815260200160002060010154815260200190815260200160002054610c839190612fe8565b600e60008573ffffffffffffffffffffffffffffffffffffffff1673ffffffffffffffffffffffffffffffffffffffff1681526020019081526020016000206000600d60008773ffffffffffffffffffffffffffffffffffffffff1673ffffffffffffffffffffffffffffffffffffffff168152602001908152602001600020600101548152602001908152602001600020819055506001945050505050610f2a565b610d7483600d60008673ffffffffffffffffffffffffffffffffffffffff1673ffffffffffffffffffffffffffffffffffffffff168152602001908152602001600020600101546001611969565b600c6000600d60008573ffffffffffffffffffffffffffffffffffffffff1673ffffffffffffffffffffffffffffffffffffffff16815260200190815260200160002060010154815260200190815260200160002060006101000a81549073ffffffffffffffffffffffffffffffffffffffff02191690556001600e60008473ffffffffffffffffffffffffffffffffffffffff1673ffffffffffffffffffffffffffffffffffffffff1681526020019081526020016000206000600d60008673ffffffffffffffffffffffffffffffffffffffff1673ffffffffffffffffffffffffffffffffffffffff16815260200190815260200160002060010154815260200190815260200160002054610e8b9190612fe8565b600e60008473ffffffffffffffffffffffffffffffffffffffff1673ffffffffffffffffffffffffffffffffffffffff1681526020019081526020016000206000600d60008673ffffffffffffffffffffffffffffffffffffffff1673ffffffffffffffffffffffffffffffffffffffff1681526020019081526020016000206001015481526020019081526020016000208190555060029450505050505b90565b600660029054906101000a900463ffffffff1681565b600e602052816000526040600020602052806000526040600020600091509150505481565b3373ffffffffffffffffffffffffffffffffffffffff168273ffffffffffffffffffffffffffffffffffffffff1603610fa057600080fd5b3373ffffffffffffffffffffffffffffffffffffffff16600c600083815260200190815260200160002060009054906101000a900473ffffffffffffffffffffffffffffffffffffffff1673ffffffffffffffffffffffffffffffffffffffff161461100b57600080fd5b60405180604001604052808373ffffffffffffffffffffffffffffffffffffffff16815260200182815250600d60003373ffffffffffffffffffffffffffffffffffffffff1673ffffffffffffffffffffffffffffffffffffffff16815260200190815260200160002060008201518160000160006101000a81548173ffffffffffffffffffffffffffffffffffffffff021916908373ffffffffffffffffffffffffffffffffffffffff160217905550602082015181600101559050506000600d60008473ffffffffffffffffffffffffffffffffffffffff1673ffffffffffffffffffffffffffffffffffffffff168152602001908152602001600020600101540361111c5761111b611baf565b5b5050565b61113261112b611640565b8383611ca9565b5050565b60095481565b6000600160008473ffffffffffffffffffffffffffffffffffffffff1673ffffffffffffffffffffffffffffffffffffffff16815260200190815260200160002060008373ffffffffffffffffffffffffffffffffffffffff1673ffffffffffffffffffffffffffffffffffffffff16815260200190815260200160002060009054906101000a900460ff16905092915050565b6111d8611640565b73ffffffffffffffffffffffffffffffffffffffff168573ffffffffffffffffffffffffffffffffffffffff16148061121e575061121d85611218611640565b61113c565b5b61125d576040517f08c379a000000000000000000000000000000000000000000000000000000000815260040161125490612e30565b60405180910390fd5b61126a858585858561138a565b5050505050565b6008818154811061128157600080fd5b906000526020600020016000915090505481565b600d6020528060005260406000206000915090508060000160009054906101000a900473ffffffffffffffffffffffffffffffffffffffff16908060010154905082565b6000808273ffffffffffffffffffffffffffffffffffffffff163b119050919050565b60007f01ffc9a7000000000000000000000000000000000000000000000000000000007bffffffffffffffffffffffffffffffffffffffffffffffffffffffff1916827bffffffffffffffffffffffffffffffffffffffffffffffffffffffff1916149050919050565b6001816000016000828254019250508190555050565b600081600001549050919050565b600073ffffffffffffffffffffffffffffffffffffffff168473ffffffffffffffffffffffffffffffffffffffff16036113f9576040517f08c379a00000000000000000000000000000000000000000000000000000000081526004016113f09061308e565b60405180910390fd5b6000611403611640565b9050600061141085611e15565b9050600061141d85611e15565b905061142d838989858589611e8f565b600080600088815260200190815260200160002060008a73ffffffffffffffffffffffffffffffffffffffff1673ffffffffffffffffffffffffffffffffffffffff168152602001908152602001600020549050858110156114c4576040517f08c379a00000000000000000000000000000000000000000000000000000000081526004016114bb90613120565b60405180910390fd5b85810360008089815260200190815260200160002060008b73ffffffffffffffffffffffffffffffffffffffff1673ffffffffffffffffffffffffffffffffffffffff168152602001908152602001600020819055508560008089815260200190815260200160002060008a73ffffffffffffffffffffffffffffffffffffffff1673ffffffffffffffffffffffffffffffffffffffff16815260200190815260200160002060008282546115799190612fe8565b925050819055508773ffffffffffffffffffffffffffffffffffffffff168973ffffffffffffffffffffffffffffffffffffffff168573ffffffffffffffffffffffffffffffffffffffff167fc3d58168c5ae7397731d063d5bbf3d657854427343f4c083240f7aacaa2d0f628a8a6040516115f6929190613140565b60405180910390a461160c848a8a86868a611e97565b61161a848a8a8a8a8a611e9f565b505050505050505050565b806008908051906020019061163b92919061224d565b505050565b600033905090565b815183511461168c576040517f08c379a0000000000000000000000000000000000000000000000000000000008152600401611683906131db565b60405180910390fd5b600073ffffffffffffffffffffffffffffffffffffffff168473ffffffffffffffffffffffffffffffffffffffff16036116fb576040517f08c379a00000000000000000000000000000000000000000000000000000000081526004016116f29061308e565b60405180910390fd5b6000611705611640565b9050611715818787878787611e8f565b60005b84518110156118c657600085828151811061173657611735612ee2565b5b60200260200101519050600085838151811061175557611754612ee2565b5b60200260200101519050600080600084815260200190815260200160002060008b73ffffffffffffffffffffffffffffffffffffffff1673ffffffffffffffffffffffffffffffffffffffff168152602001908152602001600020549050818110156117f6576040517f08c379a00000000000000000000000000000000000000000000000000000000081526004016117ed90613120565b60405180910390fd5b81810360008085815260200190815260200160002060008c73ffffffffffffffffffffffffffffffffffffffff1673ffffffffffffffffffffffffffffffffffffffff168152602001908152602001600020819055508160008085815260200190815260200160002060008b73ffffffffffffffffffffffffffffffffffffffff1673ffffffffffffffffffffffffffffffffffffffff16815260200190815260200160002060008282546118ab9190612fe8565b92505081905550505050806118bf90612f40565b9050611718565b508473ffffffffffffffffffffffffffffffffffffffff168673ffffffffffffffffffffffffffffffffffffffff168273ffffffffffffffffffffffffffffffffffffffff167f4a39dc06d4c0dbc64b70af90fd698a233a518aa5d07e595d983b8c0526c8f7fb878760405161193d9291906131fb565b60405180910390a4611953818787878787611e97565b611961818787878787612076565b505050505050565b600073ffffffffffffffffffffffffffffffffffffffff168373ffffffffffffffffffffffffffffffffffffffff16036119d8576040517f08c379a00000000000000000000000000000000000000000000000000000000081526004016119cf906132a4565b60405180910390fd5b60006119e2611640565b905060006119ef84611e15565b905060006119fc84611e15565b9050611a1c83876000858560405180602001604052806000815250611e8f565b600080600087815260200190815260200160002060008873ffffffffffffffffffffffffffffffffffffffff1673ffffffffffffffffffffffffffffffffffffffff16815260200190815260200160002054905084811015611ab3576040517f08c379a0000000000000000000000000000000000000000000000000000000008152600401611aaa90613336565b60405180910390fd5b84810360008088815260200190815260200160002060008973ffffffffffffffffffffffffffffffffffffffff1673ffffffffffffffffffffffffffffffffffffffff16815260200190815260200160002081905550600073ffffffffffffffffffffffffffffffffffffffff168773ffffffffffffffffffffffffffffffffffffffff168573ffffffffffffffffffffffffffffffffffffffff167fc3d58168c5ae7397731d063d5bbf3d657854427343f4c083240f7aacaa2d0f628989604051611b80929190613140565b60405180910390a4611ba684886000868660405180602001604052806000815250611e97565b50505050505050565b600360009054906101000a900473ffffffffffffffffffffffffffffffffffffffff1673ffffffffffffffffffffffffffffffffffffffff16635d3b1d30600754600560149054906101000a900467ffffffffffffffff16600660009054906101000a900461ffff166005601c9054906101000a900463ffffffff16600660029054906101000a900463ffffffff166040518663ffffffff1660e01b8152600401611c5e9594939291906133af565b6020604051808303816000875af1158015611c7d573d6000803e3d6000fd5b505050506040513d601f19601f82011682018060405250810190611ca19190613417565b600981905550565b8173ffffffffffffffffffffffffffffffffffffffff168373ffffffffffffffffffffffffffffffffffffffff1603611d17576040517f08c379a0000000000000000000000000000000000000000000000000000000008152600401611d0e906134b6565b60405180910390fd5b80600160008573ffffffffffffffffffffffffffffffffffffffff1673ffffffffffffffffffffffffffffffffffffffff16815260200190815260200160002060008473ffffffffffffffffffffffffffffffffffffffff1673ffffffffffffffffffffffffffffffffffffffff16815260200190815260200160002060006101000a81548160ff0219169083151502179055508173ffffffffffffffffffffffffffffffffffffffff168373ffffffffffffffffffffffffffffffffffffffff167f17307eab39ab6107e8899845ad3d59bd9653f200f220920489ca2b5937696c3183604051611e089190612469565b60405180910390a3505050565b60606000600167ffffffffffffffff811115611e3457611e33612568565b5b604051908082528060200260200182016040528015611e625781602001602082028036833780820191505090505b5090508281600081518110611e7a57611e79612ee2565b5b60200260200101818152505080915050919050565b505050505050565b505050505050565b611ebe8473ffffffffffffffffffffffffffffffffffffffff166112d9565b1561206e578373ffffffffffffffffffffffffffffffffffffffff1663f23a6e6187878686866040518663ffffffff1660e01b8152600401611f0495949392919061352b565b6020604051808303816000875af1925050508015611f4057506040513d601f19601f82011682018060405250810190611f3d919061359a565b60015b611fe557611f4c6135d4565b806308c379a003611fa85750611f606135f6565b80611f6b5750611faa565b806040517f08c379a0000000000000000000000000000000000000000000000000000000008152600401611f9f9190612541565b60405180910390fd5b505b6040517f08c379a0000000000000000000000000000000000000000000000000000000008152600401611fdc906136f8565b60405180910390fd5b63f23a6e6160e01b7bffffffffffffffffffffffffffffffffffffffffffffffffffffffff1916817bffffffffffffffffffffffffffffffffffffffffffffffffffffffff19161461206c576040517f08c379a00000000000000000000000000000000000000000000000000000000081526004016120639061378a565b60405180910390fd5b505b505050505050565b6120958473ffffffffffffffffffffffffffffffffffffffff166112d9565b15612245578373ffffffffffffffffffffffffffffffffffffffff1663bc197c8187878686866040518663ffffffff1660e01b81526004016120db9594939291906137aa565b6020604051808303816000875af192505050801561211757506040513d601f19601f82011682018060405250810190612114919061359a565b60015b6121bc576121236135d4565b806308c379a00361217f57506121376135f6565b806121425750612181565b806040517f08c379a00000000000000000000000000000000000000000000000000000000081526004016121769190612541565b60405180910390fd5b505b6040517f08c379a00000000000000000000000000000000000000000000000000000000081526004016121b3906136f8565b60405180910390fd5b63bc197c8160e01b7bffffffffffffffffffffffffffffffffffffffffffffffffffffffff1916817bffffffffffffffffffffffffffffffffffffffffffffffffffffffff191614612243576040517f08c379a000000000000000000000000000000000000000000000000000000000815260040161223a9061378a565b60405180910390fd5b505b505050505050565b828054828255906000526020600020908101928215612289579160200282015b8281111561228857825182559160200191906001019061226d565b5b509050612296919061229a565b5090565b5b808211156122b357600081600090555060010161229b565b5090565b6000604051905090565b600080fd5b600080fd5b600073ffffffffffffffffffffffffffffffffffffffff82169050919050565b60006122f6826122cb565b9050919050565b612306816122eb565b811461231157600080fd5b50565b600081359050612323816122fd565b92915050565b6000819050919050565b61233c81612329565b811461234757600080fd5b50565b60008135905061235981612333565b92915050565b60008060408385031215612376576123756122c1565b5b600061238485828601612314565b92505060206123958582860161234a565b9150509250929050565b6123a881612329565b82525050565b60006020820190506123c3600083018461239f565b92915050565b60007fffffffff0000000000000000000000000000000000000000000000000000000082169050919050565b6123fe816123c9565b811461240957600080fd5b50565b60008135905061241b816123f5565b92915050565b600060208284031215612437576124366122c1565b5b60006124458482850161240c565b91505092915050565b60008115159050919050565b6124638161244e565b82525050565b600060208201905061247e600083018461245a565b92915050565b60006020828403121561249a576124996122c1565b5b60006124a88482850161234a565b91505092915050565b600081519050919050565b600082825260208201905092915050565b60005b838110156124eb5780820151818401526020810190506124d0565b60008484015250505050565b6000601f19601f8301169050919050565b6000612513826124b1565b61251d81856124bc565b935061252d8185602086016124cd565b612536816124f7565b840191505092915050565b6000602082019050818103600083015261255b8184612508565b905092915050565b600080fd5b7f4e487b7100000000000000000000000000000000000000000000000000000000600052604160045260246000fd5b6125a0826124f7565b810181811067ffffffffffffffff821117156125bf576125be612568565b5b80604052505050565b60006125d26122b7565b90506125de8282612597565b919050565b600067ffffffffffffffff8211156125fe576125fd612568565b5b602082029050602081019050919050565b600080fd5b6000612627612622846125e3565b6125c8565b9050808382526020820190506020840283018581111561264a5761264961260f565b5b835b81811015612673578061265f888261234a565b84526020840193505060208101905061264c565b5050509392505050565b600082601f83011261269257612691612563565b5b81356126a2848260208601612614565b91505092915050565b600080604083850312156126c2576126c16122c1565b5b60006126d08582860161234a565b925050602083013567ffffffffffffffff8111156126f1576126f06122c6565b5b6126fd8582860161267d565b9150509250929050565b612710816122eb565b82525050565b600060208201905061272b6000830184612707565b92915050565b600080fd5b600067ffffffffffffffff82111561275157612750612568565b5b61275a826124f7565b9050602081019050919050565b82818337600083830152505050565b600061278961278484612736565b6125c8565b9050828152602081018484840111156127a5576127a4612731565b5b6127b0848285612767565b509392505050565b600082601f8301126127cd576127cc612563565b5b81356127dd848260208601612776565b91505092915050565b600080600080600060a08688031215612802576128016122c1565b5b600061281088828901612314565b955050602061282188828901612314565b945050604086013567ffffffffffffffff811115612842576128416122c6565b5b61284e8882890161267d565b935050606086013567ffffffffffffffff81111561286f5761286e6122c6565b5b61287b8882890161267d565b925050608086013567ffffffffffffffff81111561289c5761289b6122c6565b5b6128a8888289016127b8565b9150509295509295909350565b600067ffffffffffffffff8211156128d0576128cf612568565b5b602082029050602081019050919050565b60006128f46128ef846128b5565b6125c8565b905080838252602082019050602084028301858111156129175761291661260f565b5b835b81811015612940578061292c8882612314565b845260208401935050602081019050612919565b5050509392505050565b600082601f83011261295f5761295e612563565b5b813561296f8482602086016128e1565b91505092915050565b6000806040838503121561298f5761298e6122c1565b5b600083013567ffffffffffffffff8111156129ad576129ac6122c6565b5b6129b98582860161294a565b925050602083013567ffffffffffffffff8111156129da576129d96122c6565b5b6129e68582860161267d565b9150509250929050565b600081519050919050565b600082825260208201905092915050565b6000819050602082019050919050565b612a2581612329565b82525050565b6000612a378383612a1c565b60208301905092915050565b6000602082019050919050565b6000612a5b826129f0565b612a6581856129fb565b9350612a7083612a0c565b8060005b83811015612aa1578151612a888882612a2b565b9750612a9383612a43565b925050600181019050612a74565b5085935050505092915050565b60006020820190508181036000830152612ac88184612a50565b905092915050565b600063ffffffff82169050919050565b612ae981612ad0565b82525050565b6000602082019050612b046000830184612ae0565b92915050565b612b138161244e565b8114612b1e57600080fd5b50565b600081359050612b3081612b0a565b92915050565b60008060408385031215612b4d57612b4c6122c1565b5b6000612b5b85828601612314565b9250506020612b6c85828601612b21565b9150509250929050565b60008060408385031215612b8d57612b8c6122c1565b5b6000612b9b85828601612314565b9250506020612bac85828601612314565b9150509250929050565b600080600080600060a08688031215612bd257612bd16122c1565b5b6000612be088828901612314565b9550506020612bf188828901612314565b9450506040612c028882890161234a565b9350506060612c138882890161234a565b925050608086013567ffffffffffffffff811115612c3457612c336122c6565b5b612c40888289016127b8565b9150509295509295909350565b600060208284031215612c6357612c626122c1565b5b6000612c7184828501612314565b91505092915050565b6000604082019050612c8f6000830185612707565b612c9c602083018461239f565b9392505050565b7f455243313135353a2061646472657373207a65726f206973206e6f742061207660008201527f616c6964206f776e657200000000000000000000000000000000000000000000602082015250565b6000612cff602a836124bc565b9150612d0a82612ca3565b604082019050919050565b60006020820190508181036000830152612d2e81612cf2565b9050919050565b7f4e487b7100000000000000000000000000000000000000000000000000000000600052602260045260246000fd5b60006002820490506001821680612d7c57607f821691505b602082108103612d8f57612d8e612d35565b5b50919050565b6000604082019050612daa6000830185612707565b612db76020830184612707565b9392505050565b7f455243313135353a2063616c6c6572206973206e6f7420746f6b656e206f776e60008201527f6572206f7220617070726f766564000000000000000000000000000000000000602082015250565b6000612e1a602e836124bc565b9150612e2582612dbe565b604082019050919050565b60006020820190508181036000830152612e4981612e0d565b9050919050565b7f455243313135353a206163636f756e747320616e6420696473206c656e67746860008201527f206d69736d617463680000000000000000000000000000000000000000000000602082015250565b6000612eac6029836124bc565b9150612eb782612e50565b604082019050919050565b60006020820190508181036000830152612edb81612e9f565b9050919050565b7f4e487b7100000000000000000000000000000000000000000000000000000000600052603260045260246000fd5b7f4e487b7100000000000000000000000000000000000000000000000000000000600052601160045260246000fd5b6000612f4b82612329565b91507fffffffffffffffffffffffffffffffffffffffffffffffffffffffffffffffff8203612f7d57612f7c612f11565b5b600182019050919050565b7f4e487b7100000000000000000000000000000000000000000000000000000000600052601260045260246000fd5b6000612fc282612329565b9150612fcd83612329565b925082612fdd57612fdc612f88565b5b828206905092915050565b6000612ff382612329565b9150612ffe83612329565b925082820190508082111561301657613015612f11565b5b92915050565b7f455243313135353a207472616e7366657220746f20746865207a65726f20616460008201527f6472657373000000000000000000000000000000000000000000000000000000602082015250565b60006130786025836124bc565b91506130838261301c565b604082019050919050565b600060208201905081810360008301526130a78161306b565b9050919050565b7f455243313135353a20696e73756666696369656e742062616c616e636520666f60008201527f72207472616e7366657200000000000000000000000000000000000000000000602082015250565b600061310a602a836124bc565b9150613115826130ae565b604082019050919050565b60006020820190508181036000830152613139816130fd565b9050919050565b6000604082019050613155600083018561239f565b613162602083018461239f565b9392505050565b7f455243313135353a2069647320616e6420616d6f756e7473206c656e6774682060008201527f6d69736d61746368000000000000000000000000000000000000000000000000602082015250565b60006131c56028836124bc565b91506131d082613169565b604082019050919050565b600060208201905081810360008301526131f4816131b8565b9050919050565b600060408201905081810360008301526132158185612a50565b905081810360208301526132298184612a50565b90509392505050565b7f455243313135353a206275726e2066726f6d20746865207a65726f206164647260008201527f6573730000000000000000000000000000000000000000000000000000000000602082015250565b600061328e6023836124bc565b915061329982613232565b604082019050919050565b600060208201905081810360008301526132bd81613281565b9050919050565b7f455243313135353a206275726e20616d6f756e7420657863656564732062616c60008201527f616e636500000000000000000000000000000000000000000000000000000000602082015250565b60006133206024836124bc565b915061332b826132c4565b604082019050919050565b6000602082019050818103600083015261334f81613313565b9050919050565b6000819050919050565b61336981613356565b82525050565b600067ffffffffffffffff82169050919050565b61338c8161336f565b82525050565b600061ffff82169050919050565b6133a981613392565b82525050565b600060a0820190506133c46000830188613360565b6133d16020830187613383565b6133de60408301866133a0565b6133eb6060830185612ae0565b6133f86080830184612ae0565b9695505050505050565b60008151905061341181612333565b92915050565b60006020828403121561342d5761342c6122c1565b5b600061343b84828501613402565b91505092915050565b7f455243313135353a2073657474696e6720617070726f76616c2073746174757360008201527f20666f722073656c660000000000000000000000000000000000000000000000602082015250565b60006134a06029836124bc565b91506134ab82613444565b604082019050919050565b600060208201905081810360008301526134cf81613493565b9050919050565b600081519050919050565b600082825260208201905092915050565b60006134fd826134d6565b61350781856134e1565b93506135178185602086016124cd565b613520816124f7565b840191505092915050565b600060a0820190506135406000830188612707565b61354d6020830187612707565b61355a604083018661239f565b613567606083018561239f565b818103608083015261357981846134f2565b90509695505050505050565b600081519050613594816123f5565b92915050565b6000602082840312156135b0576135af6122c1565b5b60006135be84828501613585565b91505092915050565b60008160e01c9050919050565b600060033d11156135f35760046000803e6135f06000516135c7565b90505b90565b600060443d10613683576136086122b7565b60043d036004823e80513d602482011167ffffffffffffffff82111715613630575050613683565b808201805167ffffffffffffffff81111561364e5750505050613683565b80602083010160043d03850181111561366b575050505050613683565b61367a82602001850186612597565b82955050505050505b90565b7f455243313135353a207472616e7366657220746f206e6f6e2d4552433131353560008201527f526563656976657220696d706c656d656e746572000000000000000000000000602082015250565b60006136e26034836124bc565b91506136ed82613686565b604082019050919050565b60006020820190508181036000830152613711816136d5565b9050919050565b7f455243313135353a204552433131353552656365697665722072656a6563746560008201527f6420746f6b656e73000000000000000000000000000000000000000000000000602082015250565b60006137746028836124bc565b915061377f82613718565b604082019050919050565b600060208201905081810360008301526137a381613767565b9050919050565b600060a0820190506137bf6000830188612707565b6137cc6020830187612707565b81810360408301526137de8186612a50565b905081810360608301526137f28185612a50565b9050818103608083015261380681846134f2565b9050969550505050505056fea2646970667358221220c5b064355083a83e64cbe4fb7f273009340a99336a0f100b98ed7b03b8214f9564736f6c63430008110033",
  "immutableReferences": {
    "10": [
      {
        "length": 32,
        "start": 1695
      },
      {
        "length": 32,
        "start": 1779
      }
    ]
  },
  "source": "pragma solidity ^0.8.15;\n\nimport \"@openzeppelin/contracts/token/ERC1155/ERC1155.sol\";\nimport \"@openzeppelin/contracts/utils/Counters.sol\";\nimport \"@chainlink/contracts/src/v0.8/interfaces/VRFCoordinatorV2Interface.sol\";\nimport \"@chainlink/contracts/src/v0.8/VRFConsumerBaseV2.sol\";\n\n\ncontract NFTWarV2 is ERC1155, VRFConsumerBaseV2 {\n\n    VRFCoordinatorV2Interface coordinator; \n\n    using Counters for Counters.Counter;\n    Counters.Counter private _tokenIds;\n\n    address coordinatorAddress = 0x2Ca8E0C643bDe4C2E08ab1fA0da3401AdAD7734D; // Goerli VRF Coordinator address\n    uint64 s_subscriptionId;   // subID from vrf subscription\n    uint32 callbackGasLimit = 200000;\n    uint16 requestConfirmations = 3;  \n    uint32 public numWords =  3;\n    bytes32 keyHash = 0x79d3d8832d904592c0bf9818b621522c988bb8b0c05cdc3b15aea1b6e8db0c15;\n    uint256[] public s_randomWords;\n    uint256 public s_requestId;\n    \n    uint[] private tokenIdList;\n    uint[] private amount;\n\n\n    struct Attack {\n        address counterPlayer;\n        uint nftIdAttacker;\n    }\n\n\n    mapping(uint => address) public ownerOfNFT;\n    mapping(address => Attack) public Battle;\n    mapping(address => mapping(uint => uint)) public KillCount;\n\n    error ChallengeNotTaken();\n\n    constructor(uint64 _subscriptionId) ERC1155(\"\") VRFConsumerBaseV2(coordinatorAddress) {\n        coordinator = VRFCoordinatorV2Interface(coordinatorAddress);\n        s_subscriptionId = _subscriptionId;\n        idArray();   // return array of id from 1 to 100\n       _mintBatch(address(this), tokenIdList, amount, \"\"); // mint 100 token. 1 for each token ID\n    }\n\n    function mint() public returns (uint) {\n        _tokenIds.increment();\n        uint nftTokenId = _tokenIds.current();\n       _safeTransferFrom(address(this), msg.sender, nftTokenId, 1, \"\");  // transfer 1 NFT from contract to msg.sender\n       ownerOfNFT[nftTokenId] = msg.sender;\n       return nftTokenId;\n\n    }\n\n    function battle(address counterPlayer, uint _nftId) public {\n        require(counterPlayer != msg.sender);  // prevent user to play with self\n        require(ownerOfNFT[_nftId] == msg.sender);   // check if NFT is owned by msg.sender\n        Battle[msg.sender] = Attack(counterPlayer, _nftId);\n             \n                                                  \n        if(Battle[counterPlayer].nftIdAttacker == 0) {  // check condition to only allow random number to be requested only once\n            requestRandomWords();                      \n        } \n       \n    }\n\n    // return 1 - player A wins / return 2 - player B wins\n    function result() public returns(uint) {\n        address counterPlayer = Battle[msg.sender].counterPlayer;\n        if(Battle[counterPlayer].counterPlayer != msg.sender) revert ChallengeNotTaken(); //check if counter player has submitted NFTid for battle\n\n        address _playerA = msg.sender;\n        address _playerB = Battle[msg.sender].counterPlayer;\n\n        uint attackRatio = (s_randomWords[0] % 100);  // random number in range of 100\n\n\n        // if attack ratio is more than 50, player A wins\n        if(attackRatio > 50) {  \n            _burn(_playerB, Battle[_playerB].nftIdAttacker, 1);   // burn nft of player B\n            delete ownerOfNFT[Battle[_playerB].nftIdAttacker];\n            KillCount[_playerA][Battle[_playerA].nftIdAttacker] = KillCount[_playerA][Battle[_playerA].nftIdAttacker] + 1;   // add killCount \n            \n            return 1;\n        } else {       // else Player B wins\n            _burn(_playerA, Battle[_playerA].nftIdAttacker, 1);    // burn nft of player A\n            delete ownerOfNFT[Battle[_playerB].nftIdAttacker];\n            KillCount[_playerB][Battle[_playerB].nftIdAttacker] = KillCount[_playerB][Battle[_playerB].nftIdAttacker] + 1;   // add killCount\n\n            return 2;\n        }\n\n\n\n\n    }\n\n    function requestRandomWords() private {\n        s_requestId = coordinator.requestRandomWords(\n                      keyHash,\n                      s_subscriptionId,\n                      requestConfirmations,\n                      callbackGasLimit,\n                      numWords\n                );\n    }\n\n    function fulfillRandomWords(uint256, uint256[] memory randomWords) internal override {\n        s_randomWords = randomWords;\n   }\n\n\n    function idArray() private {\n        for(uint i=1; i < 101; i++) {\n           tokenIdList.push(i);\n           amount.push(1);\n        }\n    }\n\n}",
  "sourcePath": "/Users/cobra/Desktop/neufi-nft-wars/contracts/NFTWarV2.sol",
  "compiler": {
    "name": "solc",
    "version": "0.8.17+commit.8df45f5f.Emscripten.clang"
  },
  "schemaVersion": "3.4.11",
  "updatedAt": "2023-02-04T17:50:45.739Z",
  "networkType": "ethereum",
  "devdoc": {
    "kind": "dev",
    "methods": {
      "balanceOf(address,uint256)": {
        "details": "See {IERC1155-balanceOf}. Requirements: - `account` cannot be the zero address."
      },
      "balanceOfBatch(address[],uint256[])": {
        "details": "See {IERC1155-balanceOfBatch}. Requirements: - `accounts` and `ids` must have the same length."
      },
      "isApprovedForAll(address,address)": {
        "details": "See {IERC1155-isApprovedForAll}."
      },
      "safeBatchTransferFrom(address,address,uint256[],uint256[],bytes)": {
        "details": "See {IERC1155-safeBatchTransferFrom}."
      },
      "safeTransferFrom(address,address,uint256,uint256,bytes)": {
        "details": "See {IERC1155-safeTransferFrom}."
      },
      "setApprovalForAll(address,bool)": {
        "details": "See {IERC1155-setApprovalForAll}."
      },
      "supportsInterface(bytes4)": {
        "details": "See {IERC165-supportsInterface}."
      },
      "uri(uint256)": {
        "details": "See {IERC1155MetadataURI-uri}. This implementation returns the same URI for *all* token types. It relies on the token type ID substitution mechanism https://eips.ethereum.org/EIPS/eip-1155#metadata[defined in the EIP]. Clients calling this function must replace the `\\{id\\}` substring with the actual token type ID."
      }
    },
    "version": 1
  },
  "userdoc": {
    "kind": "user",
    "methods": {},
    "version": 1
  }
}