{
  "contractName": "Rando",
  "abi": [
    {
      "inputs": [
        {
          "internalType": "uint64",
          "name": "subscriptionId",
          "type": "uint64"
        }
      ],
      "stateMutability": "nonpayable",
      "type": "constructor"
    },
    {
      "inputs": [
        {
          "internalType": "address",
          "name": "have",
          "type": "address"
        },
        {
          "internalType": "address",
          "name": "want",
          "type": "address"
        }
      ],
      "name": "OnlyCoordinatorCanFulfill",
      "type": "error"
    },
    {
      "inputs": [],
      "name": "numWords",
      "outputs": [
        {
          "internalType": "uint32",
          "name": "",
          "type": "uint32"
        }
      ],
      "stateMutability": "view",
      "type": "function"
    },
    {
      "inputs": [
        {
          "internalType": "uint256",
          "name": "requestId",
          "type": "uint256"
        },
        {
          "internalType": "uint256[]",
          "name": "randomWords",
          "type": "uint256[]"
        }
      ],
      "name": "rawFulfillRandomWords",
      "outputs": [],
      "stateMutability": "nonpayable",
      "type": "function"
    },
    {
      "inputs": [
        {
          "internalType": "uint256",
          "name": "",
          "type": "uint256"
        }
      ],
      "name": "s_randomWords",
      "outputs": [
        {
          "internalType": "uint256",
          "name": "",
          "type": "uint256"
        }
      ],
      "stateMutability": "view",
      "type": "function"
    },
    {
      "inputs": [],
      "name": "s_requestId",
      "outputs": [
        {
          "internalType": "uint256",
          "name": "",
          "type": "uint256"
        }
      ],
      "stateMutability": "view",
      "type": "function"
    },
    {
      "inputs": [],
      "name": "requestRandomWords",
      "outputs": [],
      "stateMutability": "nonpayable",
      "type": "function"
    }
  ],
  "bytecode": "0x60a0604052732ca8e0c643bde4c2e08ab1fa0da3401adad7734d600160006101000a81548173ffffffffffffffffffffffffffffffffffffffff021916908373ffffffffffffffffffffffffffffffffffffffff1602179055507f79d3d8832d904592c0bf9818b621522c988bb8b0c05cdc3b15aea1b6e8db0c1560001b60025562030d40600360006101000a81548163ffffffff021916908363ffffffff1602179055506005600360046101000a81548161ffff021916908361ffff16021790555060038060066101000a81548163ffffffff021916908363ffffffff1602179055503480156100ef57600080fd5b50604051610a16380380610a168339818101604052810190610111919061023f565b600160009054906101000a900473ffffffffffffffffffffffffffffffffffffffff168073ffffffffffffffffffffffffffffffffffffffff1660808173ffffffffffffffffffffffffffffffffffffffff168152505050600160009054906101000a900473ffffffffffffffffffffffffffffffffffffffff166000806101000a81548173ffffffffffffffffffffffffffffffffffffffff021916908373ffffffffffffffffffffffffffffffffffffffff16021790555080600060146101000a81548167ffffffffffffffff021916908367ffffffffffffffff1602179055505061026c565b600080fd5b600067ffffffffffffffff82169050919050565b61021c816101ff565b811461022757600080fd5b50565b60008151905061023981610213565b92915050565b600060208284031215610255576102546101fa565b5b60006102638482850161022a565b91505092915050565b60805161078961028d6000396000818160f0015261014401526107896000f3fe608060405234801561001057600080fd5b50600436106100575760003560e01c80631fe543e31461005c5780637ccfd7fc14610078578063e0c8628914610096578063e89e106a146100a0578063f6eaffc8146100be575b600080fd5b6100766004803603810190610071919061050e565b6100ee565b005b6100806101ae565b60405161008d9190610589565b60405180910390f35b61009e6101c4565b005b6100a86102bc565b6040516100b591906105b3565b60405180910390f35b6100d860048036038101906100d391906105ce565b6102c2565b6040516100e591906105b3565b60405180910390f35b7f000000000000000000000000000000000000000000000000000000000000000073ffffffffffffffffffffffffffffffffffffffff163373ffffffffffffffffffffffffffffffffffffffff16146101a057337f00000000000000000000000000000000000000000000000000000000000000006040517f1cf993f400000000000000000000000000000000000000000000000000000000815260040161019792919061063c565b60405180910390fd5b6101aa82826102e6565b5050565b600360069054906101000a900463ffffffff1681565b60008054906101000a900473ffffffffffffffffffffffffffffffffffffffff1673ffffffffffffffffffffffffffffffffffffffff16635d3b1d30600254600060149054906101000a900467ffffffffffffffff16600360049054906101000a900461ffff16600360009054906101000a900463ffffffff16600360069054906101000a900463ffffffff166040518663ffffffff1660e01b81526004016102719594939291906106be565b6020604051808303816000875af1158015610290573d6000803e3d6000fd5b505050506040513d601f19601f820116820180604052508101906102b49190610726565b600581905550565b60055481565b600481815481106102d257600080fd5b906000526020600020016000915090505481565b80600490805190602001906102fc929190610301565b505050565b82805482825590600052602060002090810192821561033d579160200282015b8281111561033c578251825591602001919060010190610321565b5b50905061034a919061034e565b5090565b5b8082111561036757600081600090555060010161034f565b5090565b6000604051905090565b600080fd5b600080fd5b6000819050919050565b6103928161037f565b811461039d57600080fd5b50565b6000813590506103af81610389565b92915050565b600080fd5b6000601f19601f8301169050919050565b7f4e487b7100000000000000000000000000000000000000000000000000000000600052604160045260246000fd5b610403826103ba565b810181811067ffffffffffffffff82111715610422576104216103cb565b5b80604052505050565b600061043561036b565b905061044182826103fa565b919050565b600067ffffffffffffffff821115610461576104606103cb565b5b602082029050602081019050919050565b600080fd5b600061048a61048584610446565b61042b565b905080838252602082019050602084028301858111156104ad576104ac610472565b5b835b818110156104d657806104c288826103a0565b8452602084019350506020810190506104af565b5050509392505050565b600082601f8301126104f5576104f46103b5565b5b8135610505848260208601610477565b91505092915050565b6000806040838503121561052557610524610375565b5b6000610533858286016103a0565b925050602083013567ffffffffffffffff8111156105545761055361037a565b5b610560858286016104e0565b9150509250929050565b600063ffffffff82169050919050565b6105838161056a565b82525050565b600060208201905061059e600083018461057a565b92915050565b6105ad8161037f565b82525050565b60006020820190506105c860008301846105a4565b92915050565b6000602082840312156105e4576105e3610375565b5b60006105f2848285016103a0565b91505092915050565b600073ffffffffffffffffffffffffffffffffffffffff82169050919050565b6000610626826105fb565b9050919050565b6106368161061b565b82525050565b6000604082019050610651600083018561062d565b61065e602083018461062d565b9392505050565b6000819050919050565b61067881610665565b82525050565b600067ffffffffffffffff82169050919050565b61069b8161067e565b82525050565b600061ffff82169050919050565b6106b8816106a1565b82525050565b600060a0820190506106d3600083018861066f565b6106e06020830187610692565b6106ed60408301866106af565b6106fa606083018561057a565b610707608083018461057a565b9695505050505050565b60008151905061072081610389565b92915050565b60006020828403121561073c5761073b610375565b5b600061074a84828501610711565b9150509291505056fea26469706673582212206002b2db4aa941e66efa354b41e1b1057f6a04fb9a2651033b6a8b2c29de280f64736f6c63430008110033",
  "immutableReferences": {
    "10": [
      {
        "length": 32,
        "start": 240
      },
      {
        "length": 32,
        "start": 324
      }
    ]
  },
  "source": "pragma solidity ^0.8.15;\n\n\nimport \"@chainlink/contracts/src/v0.8/interfaces/VRFCoordinatorV2Interface.sol\";\nimport \"@chainlink/contracts/src/v0.8/VRFConsumerBaseV2.sol\";\n\ncontract Rando is VRFConsumerBaseV2 {\n\n\n  VRFCoordinatorV2Interface coordinator;\n  \n  uint64 s_subscriptionId;\n  address vrfCoordinator = 0x2Ca8E0C643bDe4C2E08ab1fA0da3401AdAD7734D;\n  bytes32 keyHash = 0x79d3d8832d904592c0bf9818b621522c988bb8b0c05cdc3b15aea1b6e8db0c15;\n  uint32 callbackGasLimit = 200000;\n  uint16 requestConfirmations = 5;\n  uint32 public numWords =  3;\n  uint256[] public s_randomWords;\n  uint256 public s_requestId;\n  \n\n  constructor(uint64 subscriptionId) VRFConsumerBaseV2(vrfCoordinator) {\n    coordinator = VRFCoordinatorV2Interface(vrfCoordinator);\n    s_subscriptionId = subscriptionId;\n  }\n  // Assumes the subscription is funded sufficiently.\n  function requestRandomWords() external {\n    // Will revert if subscription is not set and funded.\n    s_requestId = coordinator.requestRandomWords(\n      keyHash,\n      s_subscriptionId,\n      requestConfirmations,\n      callbackGasLimit,\n      numWords\n    );\n  }\n  function fulfillRandomWords(\n    uint256, /* requestId */\n    uint256[] memory randomWords\n  ) internal override {\n    s_randomWords = randomWords;\n  }\n    \n\n}",
  "sourcePath": "/Users/cobra/Desktop/neufi-nft-wars/contracts/rando.sol",
  "compiler": {
    "name": "solc",
    "version": "0.8.17+commit.8df45f5f.Emscripten.clang"
  },
  "schemaVersion": "3.4.11",
  "updatedAt": "2023-02-04T17:35:57.816Z",
  "devdoc": {
    "kind": "dev",
    "methods": {},
    "version": 1
  },
  "userdoc": {
    "kind": "user",
    "methods": {},
    "version": 1
  }
}